:020000040000FA
:10000000A00500109D240000A9240000A1240000E8
:1000100000000000000000000000000000000000E0
:10002000000000000000000000000000A324000009
:100030000000000000000000A52400009927000037
:10004000D9000000DD000000E1000000E500000034
:10005000E9000000ED000000F1000000F5000000E4
:10006000F9000000FB000000A7240000A724000006
:10007000A7240000A72400007B2600009128000090
:10008000890900003D0A0000A90B0000410C000096
:1000900079260000CD1000005F220000A924000096
:1000A000A9240000A9240000A9240000A92400001C
:1000B000A7240000A7240000A9240000A724000012
:1000C0000448854603F07CFD0048004723250000D6
:1000D000C046C046A005001000BFFEE700BFFEE717
:1000E00000BFFEE700BFFEE700BFFEE700BFFEE780
:1000F00000BFFEE700BFFEE77047704730B5002A3B
:1001000011D005231B07012464031B1984001B590C
:1001100001248C4023430524240701256D03641921
:100120008500635110E005231B07012464031B199C
:1001300084001B5901248C40A34305242407012576
:100140006D0364198500635130BD00B50020FA4984
:1001500048808880C880088008818872F7480068D5
:1001600040210843F5490860084600683121C90468
:100170000843F24908609020F149C8638862084644
:10018000C069C008C000C8610846C06910210843A2
:10019000EB49C861002207211046FFF7AFFFE8488E
:1001A000C0300069C008C000E549C0310861084698
:1001B000006910210843E249C031086100221C2176
:1001C0000120FFF79BFFDE48006AC008C000DC4941
:1001D0000862002208211046FFF790FFD8484030FF
:1001E0000069C008C000D64940310861084600696E
:1001F00010210843D2494031086101221421002016
:10020000FFF77CFFCE48C0308068C008C000CC49F2
:10021000C03188600846806810210843C849C03151
:10022000886001221A211046FFF768FFC448C030D9
:10023000C068C008C000C249C031C8600846C06874
:1002400010210843BE49C031C86001221B2110465D
:10025000FFF754FFBA48C030C069C008C000B849B1
:10026000C031C8610846C06910210843B449C03193
:10027000C86100221F210120FFF740FFB0488030F5
:10028000406BC008C000AE49803148630846406BEF
:1002900010210843AA4980314863012215211046E4
:1002A000FFF72CFFA648C06AC008C000A449C86276
:1002B0000846C06A10210843A149C86201220B21E7
:1002C0000020FFF71BFF9E48806BC008C0009C49C0
:1002D00088630846806B102108439949886301228E
:1002E0000E210020FFF70AFF9548406BC008C000B0
:1002F000934948630846406B10210843904948637E
:1003000001220D210020FFF7F9FE91208C49C862DF
:100310000863486388638A4880308069C008C000E9
:1003200087498031886108468069102108438449E3
:100330008031886101220E211046FFF7DFFE8048E0
:100340008030C069C008C0007D498031C86108465E
:10035000C069102108437A498031C86100220F2109
:100360000120FFF7CBFE764840304068C008C0004F
:10037000734940314860084640681021084370497D
:1003800040314860002211211046FFF7B7FE6C484B
:1003900040308068C008C000694940318860084624
:1003A000806810210843664940318860002212218C
:1003B0001046FFF7A3FE62484030C068C008C00086
:1003C0005F494031C8600846C068102108435C4955
:1003D0004031C860002213211046FFF78FFE5848B5
:1003E0008030006AC008C000554980310862084664
:1003F000006A10210843524980310862002210210E
:100400000120FFF77BFE4E488068C008C0004C49C1
:1004100088600846806810210843494988600122A5
:1004200002210020FFF76AFE00BD30B5002A09D086
:1004300001238B400524240711256D0264198500D2
:10044000635108E001238B40052424074525ED0175
:1004500064198500635130BD10B502460020FF29A4
:1004600007D105231B07212424021B1994001859C6
:100470000AE005231B07212424021B1994001B59A1
:100480000B40002B00D0012010BD70B504460D4676
:100490001646324629462046FFF7C7FF70BD30B5E5
:1004A00000250024FF210120FFF7D6FF04464F203E
:1004B00040060440844247D01F48008801284AD0A3
:1004C000012040032040002803D101201A49488020
:1004D0002CE0012080032040002803D1022016498F
:1004E000488023E00120C0032040002803D10420DD
:1004F000114948801AE00120C0042040002803D19F
:1005000008200D49488011E0012000052040002806
:1005100003D110200849488008E00020064948809F
:100520000848C08C022188430649C8840248408894
:10053000002810DD01250EE05C00001080800440E2
:1005400000400440500200108A480088012802D16F
:10055000002088494880284630BD014604290ED035
:1005600004DC012907D002290FD106E0082908D0B0
:1005700010290AD107E0012009E0022007E0042049
:1005800005E0082003E0102001E0002000BF00BFCC
:10059000704710B503F007F8002850D07548C088A0
:1005A00074494988884246D072484088724909880F
:1005B000884203D000207149087004E06F48007839
:1005C000401C6E4908706B4840886B4908806B4836
:1005D0000078022850DD674840886649C8800120BD
:1005E00008806748C08C022108436549C884002000
:1005F000624908705F48C08804280CD004DC0128D8
:1006000007D0022815D105E0082805D0102810D100
:1006100003E000BF00BF00BF00BF5649C888FFF716
:100620009CFF544908810A460832881D01F044FFA6
:1006300000E000BF20E00020504908701CE04D4859
:10064000C0884C494988884216D00420494908800E
:100650004B48C08C022188434949C884454840889A
:100660004449C880002088800846C08808810A461E
:100670000832881D01F020FF10BD30B5AA25FF21EA
:100680000120FFF7E9FE0446032040052040440D09
:100690003848807AA0425FD03648807A002806D059
:1006A000012819D002282CD0032854D13EE0002C78
:1006B00004D0012C06D0022C0CD107E000252D49D6
:1006C0008C7207E001252B498C7203E0FF25294934
:1006D0008C7200BF00BF3EE0002C04D0012C06D07D
:1006E000032C0CD107E0FF2522498C7207E000257E
:1006F00020498C7203E001251E498C7200BF00BFA7
:1007000029E0002C04D0022C06D0032C0CD107E0E9
:10071000012518498C7207E0002516498C7203E008
:10072000FF2514498C7200BF00BF14E0012C04D0D7
:10073000022C06D0032C0CD107E0FF250D498C724A
:1007400007E001250B498C7203E0002509498C72F2
:1007500000BF00BF00BF00BF284630BD10B5FFF787
:100760008CFF0446AA2C02D060B201F0C9FE10BD75
:10077000704700005C000010000000100200001034
:100780005002001010B52648C078012804D0022875
:100790000AD003280BD108E001F08AFE2148007836
:1007A0001F495C39887102E000BF002010BD00BF06
:1007B0000120FBE710B51A48C07801280CD00228A8
:1007C00002D003280BD108E015485C388079154920
:1007D000887401F09EFE02E000BF002010BD00BF43
:1007E0000120FBE70E4880780F49085C0C495C3912
:1007F0008871012070470A48C17880780A4A1154EC
:10080000012070470948007805495C39887101204A
:100810007047034880780549087001207047000040
:10082000000100105002001004000010030000102E
:1008300010B55148806B202188434F4988630020C0
:100840004E490862002402E000BF601CC4B2C82CFC
:10085000FADB0120494940310860486000204860C7
:100860000120486000BF454840304068C007C00FC5
:100870000028F8D02320414988603F48806B8021C0
:1008800088433D49886300BF3C48C068C007C00F2B
:100890000028F9D00320394940310863012048631A
:1008A000002048630120486300BF34484030406B5B
:1008B000C007C00F0028F8D00120304940318863BC
:1008C0002D48806B091588432B4988630846806B47
:1008D0008915884328498863012028494031886068
:1008E000C8600020C8600120C86000BF23484030B5
:1008F000C068C007C00F0028F8D023201F49086136
:1009000000BF1E484069C007C00F0028F9D0002072
:100910001A49C0310860086001208860174880309B
:100920000068012109040843144980310860134814
:100930008068C006C00E401C114948431149086038
:100940000E484030816B0F48006803F0E9F80D490C
:100950000860E120400200F038FC02F0A4F8FFF744
:10096000F4FB01F090F90121002000F09FF801F064
:1009700014FF01F083FE10BD00820440008004409B
:10098000001BB7000800001075480068C007C00FC2
:10099000002844D001207249086072480068401C59
:1009A0007049086070480088401C6F4908806F4893
:1009B0000088401C6D4908806D480088401C6C49C7
:1009C00008806C480088401C6A4908806A48008892
:1009D000401C6949088069480088401C67490880B4
:1009E00067480088002804DD65480088401E644987
:1009F000088064480088002811D06348408808288F
:100A000004D162480078401C604908705E48408804
:100A1000102804D15E480078401C5D490870504899
:100A2000006802210840002807D002204C490860D5
:100A30004C484068401C4B49486070475548006826
:100A4000C007C00F002802D0012052490860514859
:100A5000006802210840002802D002204D490860A9
:100A60007047002803D101213D4A516002E0012175
:100A7000484A516070470146002906D1384A5068FB
:100A800002221043364A506005E0424A5068022272
:100A90001043404A50607047002803D10021304A7B
:100AA000516002E000213B4A5160704770B5044636
:100AB0000D46002C21D1102000F049F80020FFF74E
:100AC000DAFF35480068802108433349086033491C
:100AD0003348006803F024F82149C8607D20C00035
:100AE000684388610520886203204861102000F077
:100AF00027F80020FFF7B5FF21E0012C1FD11120BE
:100B000000F025F80120FFF7B6FF23480068210216
:100B100008432149086021492148006803F000F892
:100B20001C49C8607D20C000684388610520886238
:100B30004861112000F004F80120FFF792FF70BD1A
:100B4000C206D20E01219140164A11607047C206BA
:100B5000D20E01219140134A80321160704700008B
:100B600000C00040680000100C0000100E000010D3
:100B70001000001012000010180000101A000010E1
:100B800014000010160000105C000010410000105E
:100B900042000010000001408080044040420F00ED
:100BA0000800001000E100E0F8480068C007C00F2E
:100BB000002805D0F548006801210843F349086082
:100BC000F248006802210840002802D00220EF49C4
:100BD0000860EE48006804210840002802D0042084
:100BE000EA490860E948006808210840002802D066
:100BF0000820E6490860E548006810210840002800
:100C000002D01020E1490860E04800682021084037
:100C1000002802D02020DD490860DC48006840211F
:100C20000840002802D04020D8490860D748006812
:100C300080210840002802D08020D44908607047F5
:100C4000D3480068C007C00F002802D00120D04957
:100C50000860CF48006802210840002802D0022026
:100C6000CB490860CA48006804210840002802D027
:100C70000420C7490860C6480068082108400028C9
:100C800002D00820C2490860C1480068102108400D
:100C9000002802D01020BE490860BD48006820210D
:100CA0000840002802D02020B9490860B8480068F0
:100CB00040210840002802D04020B5490860B448CF
:100CC000006880210840002802D08020B0490860D8
:100CD0007047002803D10121AC4A516002E0012194
:100CE000AB4A51607047002803D10021A74A5160E8
:100CF00002E00021A64A516070470146002906D152
:100D0000A24A506802221043A04A506005E0A04A5F
:100D10005068022210439E4A5060704710B5002868
:100D200069D1CB07DB0F002B1FD0002A0CD1994BC8
:100D30009B68DB08DB00974CA36023469B6802247A
:100D40002343944CA36010E0012A0ED1914B8033D1
:100D50001B68DB08DB008F4C8034236023461B6854
:100D6000012423438B4C8034236002230B40002B4F
:100D700002D0002A00D000BF04230B40002B12D069
:100D8000002A0FD1834B403B5B68DB08DB00814CC2
:100D9000403C636023465B68022423437D4C403C17
:100DA000636000E000BF08230B40002B5ED0002AE8
:100DB0000FD1784B403BDB6ADB08DB00754C403CD5
:100DC000E3622346DB6A03242343724C403CE36224
:100DD0004CE0012A4AD16F4B8033DB68DB08DB0033
:100DE0006C4C8034E3602346DB6801242343694C68
:100DF0008034E3603AE0012838D1CB07DB0F002BC9
:100E000012D0002A10D0012A0ED1624B403B5B6BFE
:100E1000DB08DB005F4C403C636323465B6B0324D1
:100E200023435C4C403C636302230B40002B02D005
:100E3000002A00D000BF04230B40002B02D0002A60
:100E400000D000BF08230B40002B0FD0002A0DD08C
:100E5000012A0BD14F4B1B68DB08DB004D4C236094
:100E600023461B68022423434A4C236010BD012102
:100E7000494A11700021517051601146C9784908E2
:100E80004900D1704106090E91707047F8B50746C8
:100E90000E4615463846FFF726FF0120FFF7E7FF0D
:100EA000012F26D13D480068B90208433B4908603C
:100EB000FF2091303649C863012229463846FFF7A2
:100EC0002DFF33484030406B28433149403148635F
:100ED0007D20C0007043044660082D498861610888
:100EE0002B48C161610801624462001528494861CC
:100EF00030E02A4800680121490208432749086078
:100F000027492848006802F00BFE2049C8603F20AE
:100F10000001C863012229463846FFF7FFFE1B483F
:100F2000403045637D20C00070430446642C00D2ED
:100F300064242046643815498861C86108620846FF
:100F400044620015486120466438134988600846A9
:100F5000C46000BF3846FFF7D0FE3846FFF7B9FE41
:100F6000F8BD10B502467D23DB004B431846002830
:100F700000D10A20002A17D04308054CA361440879
:100F8000034BDC6144081C62586216E000400140DB
:100F90000080014040400440780000108080044000
:100FA00040420F00080000104308434CA36144086E
:100FB000414BDC6144081C62586201239B023E4C99
:100FC000636110BD3D4988684978002920D03B49BC
:100FD000C968C83981420DD938498978490008184B
:100FE00035498861C8610862344988601421334AF0
:100FF00051602EE031494968002905D02F494968E0
:10100000491E2E4A516024E000212C4A517020E0F4
:101010002A4989784900411A19290DD9274989781F
:101020004900401A24498861C861086223498860E0
:101030002821224A51600CE020494968002905D046
:101040001E494968491E1D4A516002E001211B4AA0
:101050005170704700B50346122001218140184AA3
:10106000116000BF0020FFF748FE1648006801210C
:1010700049020843134908600F48C360122012490F
:1010800048600D484030006B0B49403108630A4806
:10109000806A0521084308498862084640680121A2
:1010A000084305494860122001218140044A803AE2
:1010B000116000BF00BD000000400140780000103A
:1010C00080E100E0808004404040044030B5B04BF7
:1010D0009B68DAB252105207520F012A61D0022ADD
:1010E00038D0032A02D0062A6DD152E0A84B5B69A2
:1010F000D9B29E230B40002B05D0A64B1960A44B00
:101100001B68D8B25FE0CB07DB0F002B21D0A04BD0
:101110001B68DCB29F4B1D7E1B1D5C551B1F1B7E7D
:101120005B1C9C4C237623461B7E142B11DD002375
:10113000237623461B6802242343964C2360002019
:1011400005E0FF24934B1B1D1C54431CD8B21428EC
:10115000F7DB38E08E4B1B68DCB28E4B1D7E1B1D0F
:101160005C551B1F1B7E5B1C8A4C237623461B7E13
:10117000142B0DDD0023237602232360002005E0DD
:10118000FF24844B1B1D1C54431CD8B21428F7DBCE
:1011900019E0804B1B68FF24013423437D4C2360FE
:1011A00011E07B4B5B69D9B220230B40002B03D0AD
:1011B0002023784C236005E0764B1B682024A34352
:1011C000744C236000BF00BF30BDF8B50546202039
:1011D0007049086000200876002404E0FF216D4873
:1011E000001D0155641C142CF8D3152001218140E9
:1011F000694A116000BF69488068C008C00067493B
:101200008860084680680121084364498860084670
:10121000C068C008C000C8600846C0680121084313
:101220005E49C8605E4800680121090308435C49C3
:1012300008600120886183205549C8605848866944
:1012400031465848006802F06BFC070929463846C9
:1012500002F066FC0446200A4D494860E0B208608E
:101260000320C860072088600846466900BF4848D8
:101270004069602108406028F9D101E044480668CF
:1012800043484069C007C00F0028F7D1152001214D
:101290008140414A803A116000BF05203C494860C6
:1012A000F8BD0BE000BF3A4A526920231A40002AD9
:1012B000F9D00278364B1A60401C491E0029F1D142
:1012C0007047F0B585B004460F46002002900190AB
:1012D0000090354E54E06846007B25284CD101989B
:1012E000401CC0B201902178641C582906D06429A2
:1012F00009D0692908D078293DD100BF01263607D9
:101300000120029000BF00BF002F2DD029E0314600
:10131000384602F005FCC5B23146384602F000FC02
:101320000F46002D01D001200090009800280ED01B
:10133000092D04DD28463730C0B2039003E028466B
:101340003030C0B20390012103A8FFF7AAFF029832
:10135000002801D0360904E00A21304602F0E0FB03
:101360000646002ED3D105E030200390012103A8CA
:10137000FFF797FF00BF03E0012103A8FFF791FFEC
:101380002178641C03910029A5DC05B0F0BD0000A4
:10139000008000408800001080E100E040400440F0
:1013A0008080044008000010809698000020FE49CC
:1013B0000870FE490870FE490880C8700871FD4831
:1013C00088640020C8640865704710B5F8495C312E
:1013D000002000F0E0FD10BD10B5F54854308088C5
:1013E000402801DD402402E0F14854308488F04870
:1013F0002246416D802000F0ACFE0446EC48406D72
:101400000019EB494865084654308088001B81B2BA
:10141000E7485430818010BD10B5E548416D00208B
:1014200000F0F2FD0446E24854308088001B81B28F
:10143000DF485430818010BD10B500221146802055
:1014400000F087FE10BD10B5D949891D002000F0BD
:10145000DBFD10BD10B5802000F0EBFC0021D4486E
:101460005430818010BD70B5044600250026082C3C
:1014700071D263007B449B885B009F446C00070033
:10148000BE020D036C006C0029032D03FFF79DFFC6
:10149000C7485C30C188083881801438007F400616
:1014A000800F002804D0012874D0022873D11CE1D9
:1014B000BF485C304078030002F094FB0C0711B188
:1014C0001CB127434E56717DA7B102F043FC0028A2
:1014D00002D0FFF781FF01E0FFF7BCFFA2E0002090
:1014E00002F09AFC002802D0FFF7A6FF01E0FFF708
:1014F000B1FF97E0012002F08FFC002802D0FFF737
:101500009BFF01E0FFF7A6FF8CE000BFA84840303A
:10151000007FC006C00E002807D1A5485C30807847
:1015200080210843A249C87001E0002001E000BF0B
:101530000120002802D0FFF77FFF01E0FFF78AFFBC
:1015400070E002F06DFB002802D0FFF745FF01E0DC
:10155000FFF780FF66E04FE2002000F06AFC002108
:101560009348543081805DE000BF91484030007F57
:10157000C006C00E002804D18D48001D011F48651B
:1015800001E0002001E000BF0120002804D0FFF7A7
:1015900023FF03E048E02AE2FFF75CFF42E002F0AD
:1015A000BFFC002804D0FFF747FF00F0FFFE01E07A
:1015B000FFF750FF36E000BF7D484030007FC00697
:1015C000C00E012815D17A48007900280ED078483D
:1015D0005C30007976498978884207DA74485C3053
:1015E0000179573808187249486501E0002004E085
:1015F00001E0002001E000BF0120002802D0FFF739
:10160000EBFE01E0FFF726FF0CE002F06BFD002887
:1016100002D0FFF711FF01E0FFF71CFF02E0FFF728
:1016200019FF00BF00BFE6E161484030007FC006FF
:10163000C00E002804D0012803D002284DD14DE06F
:10164000D6E15B485C304078030002F0CBFA0C44F2
:10165000071C30444444444412283C445448801DF0
:10166000811F4865FFF7B8FE0125802000F0ECFDE2
:1016700031E0FFF7AAFEFFF7DFFE4D48801D811F16
:101680004865012527E0FFF7ADF8002806D0484857
:10169000801D811F4865FFF79FFE01251BE0FFF7B6
:1016A000AAF8002802D0FFF7C7FE012513E0FFF7D4
:1016B000A9F8002806D03E48801D811F4865FFF725
:1016C0008BFE012507E0FFF7A4F8002802D0FFF702
:1016D000B3FE012500BF00BF00BF00BF002D01D138
:1016E000FFF7B8FE00BF00BF85E131484030007F02
:1016F000C006C00E002804D001287DD002287CD16D
:1017000061E12B484030007FC0285CD128485C3024
:1017100000792549087026485C30407804282FD18C
:1017200008460078422819D006DC002809D0032892
:101730000BD041281FD10DE0472813D0FF281AD124
:1017400014E001201949087019E01B480078174976
:10175000087014E000201549087010E001201349BA
:1017600008700CE0FF201149087008E01348007869
:101770000E49087003E000200C49087000BF0EE01D
:101780000B485C304078012809D10748007801F007
:1017900049FA064908700121502001F08CFA0348EB
:1017A0000349486501210BE01C0000101D000010DA
:1017B000A4000010010001002C0000101E00001009
:1017C000C8488180FDE0C7481438007F4028F9D11F
:1017D000C44808300079C4490870C24808304079CC
:1017E000C2490870BF480830407804287AD1BE4802
:1017F0000078032809D001E0E4E0E5E0082862D0A1
:10180000FB2807D0FF286ED142E0B8480078B849DD
:10181000087096E072B6B5480078042108400428A4
:1018200001D101F0D9FAB1480078C007C00F0028F3
:101830001CD00020AF490880AA20AF4908700020C2
:10184000AE49086003204003AD490860FF21013123
:10185000AC4802F096F90721062002F03FF8002874
:1018600014D10721062002F060F80FE09F480078AD
:1018700002210840022809D19E480088002805D08E
:1018800001209D49087000209A49088062B658E0FE
:1018900072B698480088FF2809DC9448017895487A
:1018A00002880088401C934B1880964881549148C8
:1018B0000088FF2805DD00208E49088001208E4920
:1018C000087062B63DE08948007803280CD10022F8
:1018D0000D211046FEF7A9FD00220E211046FEF74D
:1018E000A4FD2CE05CE02BE08048007802280AD1BF
:1018F00000220D211046FEF798FD01220E21002046
:10190000FEF793FD1BE07948007801280AD10122F7
:101910000D210020FEF789FD00220E211046FEF762
:1019200084FD0CE071480078002808D101220D21C7
:10193000FEF77BFD01220E210020FEF776FD00E080
:1019400000BF00BF6C48007801283AD172B6072169
:10195000062001F0C3FF002809D168490968032265
:1019600052038818FF220132664901F0CBFF644818
:10197000006862490968401807210903884205D2B6
:101980005E480068FF3001305C490860FF2101318A
:101990005C4802F0F6F862B6AA205749087010E0D9
:1019A00050480830407801280BD100205249087077
:1019B0004E4801784C48007801F07DF9AA204E4944
:1019C000087002E001E000E012E000BF4548083086
:1019D000C088002808D043481438007FC009002878
:1019E00004D0FFF7F9FC01E0FFF726FD03E000BF9C
:1019F000FFF730FD00BF00BF72E03A481438007FA7
:101A0000C009002845D137488088002843D0FFF717
:101A100003FD3448808800283DD132481438007FC7
:101A20004006800F002802D001282ED102E0FFF7E7
:101A300011FD2DE02B481438007FC006C00E002891
:101A400004D0012805D0022817D117E0FFF702FDC6
:101A500019E024480830007900280DD121480830C9
:101A60004078092807D1FEF7A5FE002802D0FFF72D
:101A7000E3FC012600BF00BF00BF00BF002E01D164
:101A8000FFF7E8FC00BF00BF02E0FFF7E3FC00BF88
:101A900001E0FFF7D8FC23E012481438007FC009AA
:101AA000002802D0FFF798FC11E00E485438C078A7
:101AB0008021084000280AD00A485438C0784006DF
:101AC000400E08495439C870C87800F003F907E09F
:101AD000002000F0F7F903E0802000F0F3F900BFE8
:101AE00000BF70BDF80000101C0000101D000010A9
:101AF0002C000010200000101E0000102800001014
:101B0000240000100801001001460A07D00E8022B0
:101B10000A40002A00D0401C7047FE48006840215F
:101B20000843FC49086008460068FB490843F94936
:101B30000860FA48C06840094001F849C860084692
:101B4000C06809210843F549C86008468069C00893
:101B5000C00088610846806901210843EF49886117
:101B6000704770B50546EE4C2846FFF7CDFFC00024
:101B70000419204670BD70B50021E94A1446E94DAC
:101B8000AC60E9486C02EC608402240CED002C434C
:101B900010C2CD00E54C605140260C46491CE500C2
:101BA000E24C2C19666040308402240C10C2CD0037
:101BB000DE4C605108260D46491CED002C1966606C
:101BC00040308402240C4D052C4310C2CD00D74C6C
:101BD000605140260D46491CED002C1966604030CE
:101BE000121DCD00D14C60510D46491CED002C1941
:101BF0006660403002231EE08402240CCC4D2C434E
:101C000010C2CD00C94C605140260D46491CED0064
:101C10002C19666040308402240CC54D2C4310C240
:101C2000CD00C24C60510C46491CE500BF4C2C193C
:101C3000666040305B1C042BDED370BD002807D0EB
:101C4000B8490968012212041143B64A116006E03E
:101C5000B4490968012212049143B24A11607047E5
:101C600000B50020B149083908604860FFF783FFDC
:101C7000AC48006880210843AA490860AD48086262
:101C8000AD48486200BD00B5162001218140AB4A35
:101C9000116000BFFFF741FF162001218140A74AD4
:101CA000803A116000BFFFF7DBFF0120FFF7C6FF9E
:101CB00000BD70477047A2480088022108400028F4
:101CC00005D0984800680904884396490860704721
:101CD00000BF704793490968C909C901914A116059
:101CE000114609688022024311438E4A11607047F1
:101CF000002803D090498B4A516202E09149894AF9
:101D00005162704770B505462846FFF7FDFE012178
:101D100081400C468348406920438249486100BFA6
:101D20008048406920400028FAD17E48046270BD96
:101D300070B505462846FFF714FF044601218907C0
:101D40002068884320602807000F00282FD08020BB
:101D50002840002811D02846FFF7D6FE0146012072
:101D600088407049C9690840002820D0241D0121FD
:101D7000890720688843206019E00121C90720688D
:101D8000084320602846FFF7BFFE01460120884037
:101D90006449C9690840002809D0241D0121890728
:101DA000206888432060490020680843206070BD97
:101DB00070B505462846FFF7D4FE04462807000FF5
:101DC000002815D001218907206808432060284693
:101DD000FFF79AFE0146012088405249C969084030
:101DE000002805D0241D01218907206808432060B0
:101DF00070BD70B505462846FFF7B3FE04460121C5
:101E00004907206888432060A0688843A06028466E
:101E1000FFF77AFE0146012088404249896908405F
:101E2000002800D0241D01210907206808432060F4
:101E300070BD70B505462807000F002812D128464E
:101E4000FFF78FFE04462068C00FC007002803D0AC
:101E500020684000400820600121490720680843AD
:101E600020602EE02846FFF74DFF2846FFF779FE59
:101E700004462068C00FC007002803D02068400037
:101E80004008206001214907206808432060284657
:101E9000FFF73AFE0146012088402249C9690840FF
:101EA00000280ED0241D2068C00FC007002803D0D2
:101EB000206840004008206001214907206808434D
:101EC000206070BD70B505462846FFF71DFE06462A
:101ED0002807000F002809D12846FFF742FE0446D4
:101EE0000121490720688843206053E02846FFF716
:101EF00038FE044601214907206888432060606855
:101F000088436060074880690121B140084000288B
:101F10001BD019E0808004400040000800400440CD
:101F200000180010000008400019001010020010F6
:101F300000004040FF0300C0FF03008080E100E09C
:101F4000A400001003000080241D0121090720685F
:101F50000843206080202840002808D1F6492068E6
:101F600008402060F54920680843206012E0F448EA
:101F700040680121B140084000280BD00121C90769
:101F8000206808432060EE4840680121B140884342
:101F9000EB49486070BDF3B581B00F460198FFF77B
:101FA000E0FD04460121490720680840002804D1CB
:101FB0002068801C0840002807D0012149072068BC
:101FC00088432060A0688843A06008200090DC4817
:101FD0000669002506E03946306801F0E7FD3F1D3F
:101FE000361D6D1C0098C01C8008A842F3D8241D23
:101FF0002068800E80062060D14920680969890226
:10200000090C08432060FEBDF3B585B005460020ED
:10201000019002902846FFF7A4FD04462846FFF7EA
:1020200073FD01902846FFF76FFD400002902807DE
:10203000000F00280DD0C24800680121019A91408C
:10204000084004900498002803D0241D0298401CE6
:10205000029020688001860D0298C100B8480830BF
:1020600008184068861B0298C100B54808304058DF
:10207000039000270BE003990868069901F096FD8C
:102080000698001D06900398001D03907F1CF01C0D
:102090008008B842EFD82068800E800620602807AC
:1020A000000F002815D10298C100A5480830081873
:1020B000406800040299CA00A14908318958890280
:1020C000090C08430121C90708432168084320601F
:1020D0003CE09B4800680121019A914048409849A2
:1020E0000860084600689749C96908409449086033
:1020F0009448C0690121019A91400840002810D0FD
:102100008F4800680121019A91400840002804D0BE
:10211000241D0298401C029003E0241F0298401ED8
:1021200002900298C10086480830081840680004F0
:102130000299CA008249083189588902090C08436A
:102140000121C9070843216808432060304607B0D1
:10215000F0BDF7B584B0064615463046FFF701FDE1
:1021600004463046FFF7D0FC0290029840000390EE
:102170003007000F00280DD101214907206888434E
:10218000206020468038806F8900084321468039CE
:10219000886713E06B48C0690121029A91400840AA
:1021A00000280BD0674880690121029A91400840BD
:1021B000002803D0241D0398401C03902068800E43
:1021C00080062060AD05AD0D28040399CA005C4966
:1021D000083189588902090C0843216808432060A6
:1021E0000398C100564808304058019000270BE082
:1021F000059801F0D1FC019908600598001D059033
:102200000198001D01907F1CE81C8008B842EFD89F
:10221000012149072068084000280ED03007000F30
:1022200000280AD0464840680121029A914008439C
:1022300043494860284607B0F0BD0121C90720681E
:10224000084320602846F6E770B505462846FFF7A4
:1022500088FC0446206840004008206070BDF8B546
:102260003848066A0662F00FC00700281DD03548BE
:102270000768C0013840002803D0FFF7F1FC00F0E8
:102280008FF801204006384000280DD0012040047E
:102290003840002804D0FFF70CFD00F085F803E07B
:1022A000FFF708FD00F081F845E0B005800D00283B
:1022B00040D000243CE00120A0403040002835D030
:1022C0006508E007C00F002823D1002C16D11D4857
:1022D0000068FF210131084000280FD01A4800682B
:1022E00000280BD01848016801208847154800686D
:1022F000FF21013108431349086018E0A800124982
:102300000858002812D0A8000A4611580220884711
:102310000CE0A8000C490858002807D0A8000A467D
:10232000115803208847012D00D100BF00BF641C55
:10233000042CC0D300BFF8BDFFFF00FC00004080AC
:102340000802001000000840EC42000070B505468D
:102350002846FFF706FC04462846FFF7D5FB014652
:10236000012088400D49C969084000280BD0284643
:10237000FFF7CAFB014601208840084989690840E7
:10238000002800D0241D2068C00FC0070121C90704
:10239000884201D1002070BD0120FCE70000084008
:1023A00010B5FFF703F810BD7047704710B53948F6
:1023B0000079002804D0122237498120FFF7C9FE96
:1023C00010BD02280AD0032811D1334920310979E0
:1023D00001221143304A2032117108E02E49203188
:1023E0000979022211432C4A2032117100BF00BF2B
:1023F000704702280AD0032811D1274920310979D2
:1024000004221143244A2032117108E0224920316C
:10241000097908221143204A2032117100BF00BF00
:10242000704702280AD0032811D11B4920310979AD
:1024300010221143184A2032117108E01649203148
:10244000097920221143144A2032117100BF00BFC4
:10245000704702280AD0032811D10F492031097989
:10246000402211430C4A2032117108E00A49203100
:10247000097980221143084A2032117100BF00BF40
:1024800070470548203000798109890102482030D1
:1024900001717047A400001050020010034800476B
:1024A000FEE7FEE7FEE7FEE7FEE70000C1000000F2
:1024B000002061490870704710B50B88012B02D0CD
:1024C000042B0CD10CE013885C4CE35C5A4C237059
:1024D0002346DB8C01242343574CE3840EE000BFEA
:1024E000002313801388554CE35C534C2370234620
:1024F000DB8C01242343504CE38400BF00BF10BD9C
:102500004D4A50711146C98C052211434A4AD18463
:102510007047704710B500204749C884FFF7B1FFE6
:1025200010BD002046490880464908704649087099
:10253000032046490870FEF77BF900F04DFCFFF7D9
:10254000E9FF19E04148007802210840022811D132
:102550003F4800880A2804DB00203D490880FEF738
:1025600018F83C480088032804DB0020394908801B
:1025700001F03DF900F0F7FEE4E72F48C08C04219C
:102580000840042804D12C48C08C88432A49C884B8
:102590002948C08C08210840082804D12648C08C4E
:1025A00088432549C8840020234948708870C87032
:1025B00008714871704710B572B606211E48203068
:1025C00041712038C08C400840001B49C884224813
:1025D0000078487020484078887020480078C8709B
:1025E0001E48407808711E4800784871084620301F
:1025F00042798120FFF7ADFDFFF7BFFF00201849AA
:102600000870184908701849087018490870184966
:102610000880184908800848C08C0821884306496A
:10262000C88408462030007941084900024820301B
:10263000017162B610BD000050020010004300009E
:102640001600001041000010420000102C00001085
:102650000C000010120000103600001038000010AE
:10266000400000102F00001030000010310000105A
:102670003C0000103E0000107047704770B500BF6E
:102680001420012181403F4A116000BF3E4840684C
:10269000012108433C4948603B4880300068C91428
:1026A0000843394980310860012048613748006A91
:1026B000C008C000354908620846006A0121084385
:1026C000324908620846406AC008C00048620846AD
:1026D000406A012108432D49486201202B49C0313D
:1026E00048612A488068C008C000284988600846B8
:1026F00080681021084325498860254825490860DD
:1027000002200861002404E022488068C5B2601CF1
:10271000C4B2082CF8DB142001218140194A803A08
:10272000116000BF02201B494860012202210020E5
:10273000FDF77BFE70BD10B50A4600BF00BF154B0C
:10274000DB6812242340022BF9D10378114CA360DB
:1027500000BF104BDB6814242340042BF9D10D4B30
:102760009B68D9B210BDFF220A4B9A6000BF094A8C
:10277000D26814231A40042AF9D1064A92680270DA
:102780007047000080E100E0008004400040044009
:10279000C702000000000440704710B50020C0438D
:1027A000C206D20E01219140344A116000BF7D2142
:1027B000C9003348006801F0B3F90A2104464C43CC
:1027C0003048844201D901200FE02002000A401E57
:1027D0002D49486107210020C04300F015F8002072
:1027E00029498861072008610020002801D000BF26
:1027F000FEE70020C043C206D20E012191401F4ACD
:10280000803A116000BF10BD10B5002819DA1F4AC8
:1028100003071B0F083B9B089B00D2588307DC0E65
:10282000FF23A3409A434B071B0E8407E40EA340EB
:102830001A43164B0407240F083CA408A4001A519D
:102840001AE00E4A803A03231B02D21883089B0029
:10285000D2588307DC0EFF23A3409A434B071B0E7D
:102860008407E40EA3401A43044B803B0324240254
:102870001B198408A4001A5110BD000080E100E07B
:1028800008000010FFFFFF0000E000E01CED00E08A
:1028900000B5012189074968C8B24107490F0029DD
:1028A0007BD1C1100B0001F09DF90CD1071521CC93
:1028B0003263D28BCD97B7D10021CD4A91731146A7
:1028C0004978012292079160202191610121C84A33
:1028D0001170BDE00021C64A5173A1218A079160A1
:1028E000202191610421C24A1170B1E0C0490978E8
:1028F00001290BD10221BE4A11701146098AFF221B
:10290000120211400912012292079160A0E0B84919
:102910000978022908D1B649097C01229207916001
:102920000321B34A117093E0B1498978012913D189
:10293000AF49097803291AD10621AD4A1170114611
:102940008A7BC91C895C012292079160A849897B16
:10295000491CA74A91737BE0A5498978022906D1D1
:1029600020214A0611600521A14A117070E000BFC4
:102970009F49897B9E4A127B91420FDA9C498A7B50
:10298000C91C895C0122920791609949897B491C85
:10299000974A91730621117011E057E09449C97A62
:1029A000002906D020214A0611600521904A1170A5
:1029B00005E007218E4A117010218A06116047E058
:1029C0008B49C97A012903D104210A07916102E0E8
:1029D00004210A0711603BE0012189078968CAB216
:1029E00083494B7BC91DCA54C91F497B491C804A76
:1029F00051731146497BD27A914206DA06217C4A0C
:102A0000117004210A07116005E00721784A11704E
:102A100004210A0791611BE0012189078968CAB274
:102A200073494B7BC91DCA54C91F497B491C704A55
:102A300051730721117010218A06116008219161DC
:102A400006E000BF07216A4A117001E000BF00BF25
:102A500000BF0821CA06916100BD002100206C2240
:102A600001239B079A6160221A600BE0604A12788A
:102A7000012A01D1012006E05E4A914201D30020E3
:102A800001E0491CF2E700BF704750208106086052
:102A90002C20886100BF01208007006810210840B9
:102AA0000028F8D1704710B50F2001218140524A0B
:102AB000116000BF00204E4908708870C87208730A
:102AC000487388734D484068022108434B49486069
:102AD0004A48803000682021084348498031086016
:102AE0004748006980098001454908610846006936
:102AF0000121084342490861084640698009800174
:102B0000486108464069012108433D4948616C20FD
:102B1000090488613B493C48006801F001F840081D
:102B200001218907486137493748006800F0F8FFFC
:102B30004008012189070861A020C8600F200121F9
:102B400081402D4A803A116000BF10BD10B50124AC
:102B5000A0202749487000200870FFF77EFF012859
:102B600002D0FFF792FF10BD06E021480078072849
:102B700002D10024FFF789FF002CF6D100BFF2E755
:102B800000B5A1201A494870002008704873FFF76B
:102B900064FF012802D0FFF778FF00BD06E014486B
:102BA0000078072802D1FFF770FF00E0F7E700BFC9
:102BB00000BFF2E730B505460C460D4805820120FE
:102BC0000B4988702078C87001200873FFF7BEFF9A
:102BD00030BD10B5044606480482022004498870BE
:102BE00000200873FFF7B2FF0148C07910BD000054
:102BF00078020010FFFFFF0080E100E00080044049
:102C000000400440801A06000800001007E004217C
:102C100001E04A1ED1B20029FBDC421E90B200281E
:102C2000F5D1704701B5FE48007808210840082812
:102C300017D16846007802281AD068460078032821
:102C400016D068460078042812D068460078052817
:102C50000ED06846007806280AD00120F149087095
:102C600006E068460078502802D00120ED4908703F
:102C700072B6002202211046FDF7D7FB0120FFF7B4
:102C8000C5FF01216846FFF756FD0220FFF7BEFF92
:102C900001216846FFF767FD0120FFF7B7FF01221A
:102CA00002210020FDF7C1FB0A20FFF7AFFF62B64B
:102CB0006846007808BD13B568460078002804D13E
:102CC00068460079D849087021E072B669460878EC
:102CD000802108430090002202211046FDF7A5FB49
:102CE0000120FFF793FF01216846FFF724FD012132
:102CF00001A8FFF720FD0120FFF788FF0122022134
:102D00000020FDF792FB0520FFF780FF62B61CBD97
:102D100038B500211020FFF7CEFF1D211320FFF74B
:102D2000CAFF002405E07D20C000FFF76FFF601C94
:102D300084B20A2CF7DB18211320FFF7BCFF7820A0
:102D4000FFF764FF002202211046FDF76EFBE22030
:102D5000009001216846FFF7EEFC8C20FFF756FF3C
:102D600000240BE0B148005D009001216846FFF7A8
:102D7000E2FC1E20FFF74AFF601C84B2AC480088CA
:102D80008442EFDB012202210020FDF74EFBB4203C
:102D9000FFF73CFF38BD10B5012215211046FDF7A5
:102DA00044FB3220FFF732FF002215210120FDF7FE
:102DB0003CFB3220FFF72AFF012215211046FDF7C8
:102DC00034FB002405E07D20C000FFF71FFF601CDE
:102DD000C4B23C2CF7DB10BDF8B500270025002459
:102DE00000200090022601208E49087000209149A1
:102DF0000880914908809149087001220B21FDF754
:102E000014FB00220D211046FDF70FFB01220E21BD
:102E10000020FDF70AFB30460421084048400246E6
:102E200014210020FDF701FB3046022108404840F4
:102E300002461A210120FDF7F8FAF007C00F012120
:102E4000484002461B210120FDF7EFFA012215211F
:102E50001046FDF7EAFA00BF05E07D20C000FFF74D
:102E6000D5FE681CC5B2322DF7DB012202210020FD
:102E7000FDF7DBFA0120FFF7C9FE00220221104610
:102E8000FDF7D3FA5A213A20FFF715FF6C48FFF7F8
:102E9000BDFE12217F20FFF70EFF00214720FFF724
:102EA0000AFF00217F20FFF706FF00211820FFF70F
:102EB00002FF80214020FFF7FEFE01215520FFF791
:102EC000FAFE7D20C000FFF7A1FE0E217F20FFF754
:102ED000F2FE1D214320FFF7EEFE4620FFF7A2FE83
:102EE000584908701E214320FFF7E5FE4620FFF7F2
:102EF00099FE5549087014217F20FFF7DCFE5148E8
:102F000001786A20FFF7D7FE4F4801786C20FFF761
:102F1000D2FE00217F20FFF7CEFE00215520FFF7D3
:102F2000CAFE10214D20FFF7C6FE3B214E20FFF7C1
:102F3000C2FE46214F20FFF7BEFE34215420FFF78A
:102F4000BAFE24217720FFF7B6FE05217F20FFF788
:102F5000B2FEA8214420FFF7AEFE15214620FFF760
:102F6000AAFE14214A20FFF7A6FE10215120FFF7E8
:102F7000A2FE0C215320FFF79EFEC9215520FFF72A
:102F80009AFEEA215B20FFF796FE13216120FFF7EE
:102F900092FE0B216220FFF78EFE18216420FFF7BE
:102FA0008AFE86216D20FFF786FE85217D20FFF7B2
:102FB00082FE03217E20FFF77EFE06217F20FFF7A1
:102FC0007AFEB0216020FFF776FE00216120FFF736
:102FD00072FE29216D20FFF76EFE23216E20FFF780
:102FE0006AFE40217E20FFF766FE07217F20FFF763
:102FF00062FE15214220FFF75EFE08217F20FFF7C9
:103000005AFE28214220FFF756FE32214320FFF7C7
:1030100052FE09217F20FFF74EFE0321402015E0DC
:103020002C0000102E0000103A000010006000007C
:10303000DE45000032000010340000104000001097
:10304000881300004300001044000010FFF733FE17
:103050000A217F20FFF72FFE28214A20FFF72BFEB1
:1030600028214C20FFF727FE00214920FFF723FEEF
:1030700002214F20FFF71FFE0C217F20FFF71BFED0
:1030800090214020FFF717FE50214120FFF713FE4B
:103090000C214220FFF70FFEA8214320FFF70BFE73
:1030A00047214420FFF707FE01214520FFF703FEDB
:1030B0004F214D20FFF7FFFD1B214E20FFF7FBFDA9
:1030C00000215420FFF7F7FD60215520FFF7F3FDA5
:1030D00060215620FFF7EFFD30215820FFF7EBFD70
:1030E00063215920FFF7E7FD0D217F20FFF7E3FD66
:1030F00023214B20FFF7DFFD40214C20FFF7DBFDB4
:103100006B214E20FFF7D7FDC3215E20FFF7D3FDD3
:1031100002214F20FFF7CFFD10217F20FFF7CBFDCD
:103120001E214520FFF7C7FDF0214620FFF7C3FD14
:103130000F214820FFF7BFFD88214920FFF7BBFD85
:1031400015214C20FFF7B7FD00214F20FFF7B3FDFD
:103150006F215120FFF7AFFD90215220FFF7ABFD0B
:1031600064215420FFF7A7FDF0215520FFF7A3FDB0
:1031700040215C20FFF79FFDEE216120FFF79BFDC2
:10318000E5216220FFF797FD14217F20FFF793FDD3
:103190000C215320FFF78FFD67214A20FFF78BFD9D
:1031A00020216D20FFF787FD00216E20FFF783FDB2
:1031B00083217320FFF77FFD00217420FFF77BFD43
:1031C00016217A20FFF777FD14216320FFF773FDA6
:1031D00014216220FFF76FFD00217F20FFF76BFDB8
:1031E00040215B20FFF767FDAD216120FFF763FD04
:1031F000EA215120FFF75FFD9F211920FFF75BFDBA
:1032000000250BE02020FFF70DFD0F2800D107E07F
:103210006920C000FFF7FAFC681CC5B2372DF1DB4E
:1032200000BF322D4DD147E0002404E0FB48FFF7FA
:10323000EDFC601C84B21E2CF8DB0122142100205E
:10324000FDF7F3F801221A211046FDF7EEF80022EF
:103250001B210120FDF7E9F8002404E0EF48FFF707
:10326000D5FC601C84B2282CF8DB0122142100203C
:10327000FDF7DBF800221A210120FDF7D6F8012224
:103280001B211046FDF7D1F8002404E0E348FFF7C6
:10329000BDFC601C84B2322CF8DB002214211046E5
:1032A000FDF7C3F801221A211046FDF7BEF80122EE
:1032B0001B211046FDF7B9F82020FFF7B3FC0F28BB
:1032C000B2D110211920FFF7F6FCD5216120FFF7BC
:1032D000F2FC00214020FFF7EEFC00217F20FFF7E9
:1032E000EAFCD0214D20FFF7E6FC0220FFF79AFC14
:1032F00006460320FFF796FC06460420FFF792FCE3
:1033000006460520FFF78EFC06460620FFF78AFCDE
:103310000646C248FFF77AFCC148007941084900D7
:10332000BF4801714279014620398120FEF711FF23
:10333000F8BD10B500242420FFF774FC04461420C7
:10334000FFF764FC01215020FFF7B5FCB420FFF724
:103350005DFC40202040402803D0FFF73DFD0120C8
:1033600010BD0020FCE710B572B6AE4800880028FA
:103370007ED00020AC490880AC490880AC48008869
:1033800000280AD1AB480088002806D1A44820387C
:10339000C08CC007C00F002801D0FFF70CF9002235
:1033A00002211046FDF741F80120FFF72FFC1620FF
:1033B000A14908700121A048FFF7BDF90220FFF7DD
:1033C00025FC00209C4908700BE09C499A4A127821
:1033D00088180121FFF7C7F997480078401C9649E3
:1033E0000870954800780628EFDB0120FFF70EFCF7
:1033F000012202210020FDF718F89048807840B2A1
:10340000894908708D48C07840B248708B4800796F
:1034100040B2864908708948407940B2487088486F
:10342000008881490988401800B28549088085488C
:1034300000887E490988401800B282490880804887
:1034400000887B490988401A00B27D4908807D4880
:10345000008878490988401A00B27A49088000201B
:1034600073490880734908806E490880012000E094
:1034700009E0754908707548806800B27449088091
:103480000020744908807048007801287ED1C10767
:10349000FCF7E2FF0028F9D16349088063490880FE
:1034A0006A4880686A490988401A00B268490880F9
:1034B000002202211046FCF7B8FF0120FFF7A6FB0F
:1034C00016205D49087001215B48FFF734F902209E
:1034D000FFF79CFB0020584908700BE05749564AFB
:1034E000127888180121FFF73EF953480078401CF4
:1034F00051490870504800780628EFDB0120FFF79B
:1035000085FB012202210020FCF78FFF4B488078C9
:1035100040B2454908704948C07840B248704748B1
:10352000007940B2414908704448407940B248703F
:10353000434800883C490988401800B24049088047
:103540004048008839490988401800B23D49088040
:103550003F4A0023D35E7D22D2009918384B0022C7
:103560009A5E7D23DB005A43104600F0EFFA00B26A
:103570002F490880364B00229A5E7D23DB00D1184C
:10358000304B00229A5E7D23DB0000E009E05A43C5
:10359000104600F0DBFA00B22649088000202A49D4
:1035A000087062B610BD7FB50026002400252AA150
:1035B00003C9039102902AA103C901910090FF2140
:1035C0000020FCF749FF0446FF210120FCF744FFDF
:1035D000054607204004204007214904884206D1BF
:1035E0000320C00328400321C903884268D01E4835
:1035F000008801286FD00120C0032840002803D193
:1036000002201949488055E001204004204000284C
:103610002CD10420144948804CE000001027000001
:10362000700200101800001052000010540000102A
:103630003600001038000010500000104A00001042
:1036400032000010340000104500001000C000409F
:10365000460000101A0000100000000000000001E9
:103660000F133C6491CAA1BF5C00001001208004CC
:103670002040002803D101208D4948801AE0012014
:10368000C0042040002803D108208949488011E067
:10369000012000042840002803D1102084494880DC
:1036A00008E00020824948808248C08C022188437B
:1036B0008049C8847E48408800280CDD01260AE045
:1036C0007B480088012803D079484088002802D030
:1036D00000207749488078480088002879D17448CC
:1036E0004088082803D072484088102873D1734856
:1036F0000078002878D1012071490880714800784D
:10370000C82803DC70480078C8286DDD01206B49AB
:1037100008706C480078C8280BDD002069490870E3
:103720006A480078072804DA68480078401C67492E
:10373000087065480078C8280BDD002062490870D1
:1037400062480078002804DD60480078401E5F4928
:1037500008705E480078052804DD90214D20FFF7B1
:10376000AAFA03E010214D20FFF7A5FA5748007888
:10377000022804DD90215A20FFF79DFA03E0102172
:103780005A20FFF798FA6846504A1278815C4E201A
:10379000FFF791FA4D48007804210840484002465E
:1037A00014210020FCF741FE48480078022108401F
:1037B000484002461A210120FCF737FE43480078B2
:1037C000C007C00F0121484002461B210120FCF721
:1037D0002CFE09E0FFE70020384908703A490870DC
:1037E0003849087036490880304604B070BDF8B5D5
:1037F0000026002700250024FF210020FCF72CFED6
:103800000646FF210120FCF727FE074680203040B6
:10381000802800D101240120000738400121090738
:10382000884200D101252A480078844230D0002DFA
:1038300017D1002C0ED12748007800280AD124483F
:103840000078012806D124480078401C40B2224963
:1038500008701DE020480078401E40B21E490870E4
:1038600016E0002C0ED11B48007800280AD1184819
:103870000078002806D118480078401E40B216494A
:10388000087005E014480078401C40B212490870E6
:1038900011480078002805D00648C08C092108434B
:1038A0000449C8840B48057009480470F8BD00003D
:1038B0005C000010500200101400001057000010AF
:1038C00016000010410000104200001056000010C9
:1038D00059000010580000104000001070B588B06A
:1038E00004460E46A64201D20C2508E03220009084
:1038F0000194029605A96846814A9047059D28468D
:1039000008B070BD70B588B004460D461646332029
:1039100003900494059506967A480790694603A893
:10392000774A9047009808B070BD70B588B00446DB
:103930000E46A64201D20C250AE0342003900494DE
:10394000059670480690694603A86D4A9047009D09
:10395000284608B070BD10B572B607210320FFF7E6
:10396000BDFF002803D107210320FFF7DEFF62B669
:1039700010BD01460A461078704700B57F2000024E
:10398000FFF7F7FF03026048FFF7F3FF0343AC2B99
:1039900001D1012000BD0020FCE770B501263120D7
:1039A0000002FFF7E6FF04025848FFF7E2FF044376
:1039B0007F200002FFF7DDFF05025348FFF7D9FF24
:1039C00005435348844208D1FFF7D7FF002802D0AF
:1039D000FFF7C1FF08E0002606E04E48844201D10F
:1039E000AC2D01D1FFF7B7FF304670BD10B5474C85
:1039F000403CA04710BD70B5082500240CE04648A7
:103A0000015D464842881030815410384088401C7F
:103A100042494880601C84B2AC42F0DB3F48408899
:103A2000FF2827DD72B607210320FFF757FF002884
:103A30001FD13A4909780902032212038818FF228C
:103A4000013236491031FFF75DFF002811D162B60F
:103A5000002405E0FF21314810300155601C84B27C
:103A6000FF2CF7DD00202D49488008460078401CD7
:103A7000087062B600202949487070BD70B50825ED
:103A800000240CE02448015D244842881030815411
:103A900010384088401C21494880601C84B2AC42E8
:103AA000F0DB72B607210320FFF718FF00280CD1C6
:103AB0001A4909780902032212038818FF220132E9
:103AC00016491031FFF71EFF62B662B670BD10B521
:103AD0000146124A117100200EE00F4A145C0F4A91
:103AE0005278521C0D4B1B1D9C541A1F5278521CAD
:103AF0001B1F5A70421CD0B28842EEDB10BD000082
:103B0000F11FFF1F80BB0000017F0000013100009A
:103B10005A5A0000FFFF0000620200108C020010E1
:103B200030B50B46014600202022012409E00D4655
:103B3000D5409D4205D31D469540491B25469540DD
:103B400040191546521E002DF1DC30BD70B5002421
:103B50002546002801DA01244042002901DA012526
:103B60004942FFF7DDFFAC4200D04042002C00D0BC
:103B7000494270BDD2B201E00270401C491EFBD226
:103B800070470022F6E710B513460A460446194668
:103B9000FFF7F0FF204610BD0321001D401E0378F3
:103BA00012021A43491EF9D51046704703460322F4
:103BB0000870000A491C521EFAD5184670470000CA
:103BC000064C0125064E05E0E36807CC2B430C3C70
:103BD00098471034B442F7D3FCF776FAE04500007A
:103BE0000046000030B47446641E2578641CAB4265
:103BF00004D3635D5B00E31830BC18471D46F8E74B
:103C000002E008C8121F08C1002AFAD170477047A5
:103C1000002001E001C1121F002AFBD17047000003
:103C200010B54648007FC006C00E002802D001280B
:103C300077D148E041481C30C078012804D00228E0
:103C400008D003283BD122E03D483C4C403C606515
:103C5000122236E03B49002308E00878002804D00F
:103C6000C8788C780002204309185B1C33481C304C
:103C700080789842F1D10878002800D110BD2F48F3
:103C800040384165C8788C780202224319E02E49F9
:103C9000002305E00878002801D0087809185B1C8B
:103CA00026481C3080789842F4D10878002800D14A
:103CB000E4E7224840384165406D027801E0002089
:103CC000DCE700BF2FE01D481C30C078212804D05D
:103CD00022280FD0232820D11DE018481C3000795D
:103CE00019246043174C12340019144C403C606591
:103CF000092214E011481C300079002806D113482D
:103D0000028813480D4C403C606501E00020B5E797
:103D100000BF04E005E00020B0E70020AEE700BFF0
:103D200001E00020AAE700BF0448143080889042D8
:103D300002D902481430828001209FE7E40000107D
:103D40007242000084420000A6420000704200005F
:103D5000304200002F48007FC006C00E002804D06B
:103D6000012807D002284FD11BE02A4840380346DB
:103D700058654BE027484038007900280ED0254888
:103D80001C300079234B403B9B78984206DA002098
:103D9000204B403BD880981D586501E000207047BB
:103DA00034E01C481C3001798F23194080200840E2
:103DB000002805D00B071B0F01200004984001E0EC
:103DC000012088400246134840380079002803D17A
:103DD0000807000F002814D10E484038806C1040AE
:103DE00000280ED00B484038C06C1040002801D08D
:103DF000012000E00020074B403BD880981D58650B
:103E000001E00020CBE701E00020C8E700BF01206F
:103E1000C5E70000E400001070B506463F48007F8B
:103E2000C006C00E002804D0012823D002286FD17C
:103E300022E03A481C304088012818D1002E0AD0D0
:103E4000FDF746FF354840380088022108433349D2
:103E5000403908800DE00020FDF73AFF2F48403838
:103E60000088022188432D494039088001E0002064
:103E700070BD4FE00020FBE728481C3004798F21FB
:103E80000C4080202040002805D02107090F012088
:103E90000004884001E00120A04005461F4840384A
:103EA0000079002830D02007000F00282CD01B48B4
:103EB0004038806C2840002826D018481C304088A4
:103EC00000281FD1002E0AD02046FDF7B2FF13486C
:103ED0004038C06C284311494039C86416E00F4887
:103EE0004038006D2840002801D00120C0E720465E
:103EF000FDF7E8FF09484038C06CA843074940393E
:103F0000C86403E00020B3E70020B1E702E0FFE768
:103F10000020ADE700BF0120AAE70000E400001088
:103F2000F8B500266C48007FC006C00E00287DD181
:103F300069481C308078002879D0684D8DE0687819
:103F4000022804D004285FD005285CD15EE069799E
:103F500061481C30807881424FD15F481C308078A6
:103F60005D494039087128798870002404E00021F7
:103F700059483B380155641C002CF8D0012419E045
:103F800055484038806C0121A1400840002802D0EB
:103F90002046FDF70DFF50484038806C0121090490
:103FA000A1400840002804D0802121430846FDF7A5
:103FB000FFFE641C052CE3D3494847494039886417
:103FC0000020C86408650120FDF792FEE8794021D1
:103FD0000840002808D040484038008801210843A4
:103FE0003D49403908800EE03B4840380088400891
:103FF000400039494039088005E0E878A978000296
:104000000843451929E024E0EE7822E0002E1FD174
:10401000A8788F210840044680202040002807D03F
:104020002107090F01200004884003E04FE019E058
:104030000120A040074628484038806C3843264974
:10404000403988642046FDF773FE2046FDF7D1FE17
:1040500000BF00BF2878451900BF2878002800D08D
:104060006DE72AE000201C4940390871012419E05D
:1040700019484038806C0121A1400840002802D036
:104080002046FDF795FE14484038806C0121090454
:10409000A1400840002804D0802121430846FDF7B4
:1040A00087FE641C052CE3D30D480B494039886416
:1040B0000020C8640865FDF71BFE074840380179F9
:1040C0005C308078814201D00020F8BD01E0002002
:1040D000FBE700BF0120F8E7E40000108442000085
:1040E00001000100F0B585B0002700200390029088
:1040F00001904D48007FC006C00E01287ED14A487D
:1041000040380079002801D105B0F0BD00200090B2
:10411000464C7DE06078022804D004280FD00528A2
:1041200072D128E06079404940390979884205D048
:10413000E078A17800020843041969E064E0A778F8
:10414000E07803900020019037481C300079B84295
:1041500010D135481C308178039881420AD1012062
:10416000009031483B38C05D02900398C1B22E48A0
:104170003B38C15548E02C481C300079B84242D148
:10418000A6788F210E4080203040002805D03107CE
:10419000090F01200004884001E00120B0400546DD
:1041A00021481C3081780398814214D11E48403840
:1041B000806C28431C49403988640846C06CA84379
:1041C000C8643046FDF7B4FD3046FDF712FE019895
:1041D0002843019017E002990398884213D101986F
:1041E000284000280FD110484038806CA8430E4961
:1041F000403988640846C06CA84300E00DE0C864FC
:104200003046FDF7D5FD00BF00BF2078041900BF80
:104210002078002800D07DE701E0002074E700BF8F
:104220000098C0B270E70000E40000108442000073
:1042300005010902A1010901A100050919012903CC
:104240001500250195037501810295017505810110
:1042500005010930093116018026FF7F751095028E
:10426000810609381581257F750895018106C0C032
:10427000400012010002000000402F190000000061
:10428000010200010902220001010080320904003C
:104290000001030102000921110100012240000771
:1042A0000581030600010403090428035000690086
:1042B0007800410072007400200049006D00610028
:1042C000670069006E006700200049006E0063000F
:1042D0002E001A03470061006D0069006E00670040
:1042E00020004D006F00750073006500671400002A
:1042F000C3230000000000000000000000000000D8
:10430000000102030405060708090A0B0C0D0E0F35
:10431000101112131415161718191A1B1C1D1E1F25
:10432000202122232425262728292A2B2C2D2E2F15
:10433000303132333435363738393A3B3C3D3E3F05
:10434000404142434445464748494A4B4C4D4E4FF5
:10435000505152535455565758595A5B5C5D5E5FE5
:10436000606162636465666768696A6B6C6D6E6FD5
:10437000707172737475767778797A7B7C7D7E7FC5
:10438000808182838485868788898A8B8C8D8E8FB5
:10439000909192939495969798999A9B9C9D9E9FA5
:1043A000A0A1A2A3A4A5A6A7A8A9AAABACADAEAF95
:1043B000B0B1B2B3B4B5B6B7B8B9BABBBCBDBEBF85
:1043C000C0C1C2C3C4C5C6C7C8C9CACBCCCDCECF75
:1043D000D1D2D3D4D5D6D7D8D9DADBDCDDDEDFE055
:1043E000E1E2E3E4E5E6E7E8E9EAEBECEDEEEFF045
:1043F000F1F2F3F4F5F6F7F8F9FAFBFCFDFE07002D
:104400000107000207000400000000000100000294
:104410000000030000040000050000060000070083
:10442000000800000900000A00000B00000C00005A
:104430000D00000E00000F0000100000110000121F
:104440000000130000140000150000160000170003
:10445000001800001900001A00001B00001C0000DA
:104460001D00001E00001F0000200000210000228F
:104470000000230000240000250000260000270083
:10448000002800002900002A00002B00002C00005A
:104490002D00002E00002F000030000031000032FF
:1044A0000000330000340000350000360000370003
:1044B000003800003900003A00003B00003C0000DA
:1044C0003D00003E00003F0000400000410000426F
:1044D0000000430000440000450000460000470083
:1044E000004800004800004900004A00004B00005E
:1044F0004C00004D00004E00004F000050000051E5
:104500000000520000530000540000550000560007
:10451000005700005800005900005A00005B0000DE
:104520005C00005D00005E00005F00006000006154
:104530000000620000630000640000650000660087
:10454000006700006800006900006A00006B00005E
:104550006C00006D00006E00006F000070000071C4
:1045600000007200007300008500008700008800D2
:10457000008900008A00008B0000900000E000002D
:10458000E10000E20000E30000E40000E50000E6D6
:104590000000E70000F00000F10000F20000F3006E
:1045A00000F40000F50000F60400B50400B60400B5
:1045B000B70400CD0400E20400E90400EA0401832A
:1045C00004018A04019204019404022104022304D8
:1045D000022404022504022604022704022A0010F1
:1045E00000460000000000105C000000003C0000DD
:1045F0005C4600005C00001044050000103C000018
:1046000000000000000000000000000000000000AA
:10461000000000000000000000000000000000009A
:10462000000000000000000000000000000000008A
:10463000000000000000000000000000000000007A
:10464000000000000000000000000000000000006A
:0C4650000000000000000200000000005C
:020000040000FA
:106000000106889E7E4C7E7E7E5F1DB8F2662FDC88
:106010003AD72CBAF44B168B756833E42BD42AB7D5
:10602000EC5A36CFFD5911A0C2E74C1A97ACDA17DB
:10603000ACDA17ACDA36EE3FDD38D3058873644A44
:10604000168F7D7B72664E1EBEFE5F1D999181612B
:1060500025A1C0E325C812A6AFDC3AF64FFD785360
:10606000058892876D39D101806625C812876D58E1
:1060700032E64EFF5D38D3056931C10082806F5C26
:10608000576D60D6CD0F900900B652A4E8593C6117
:106090009E9B779EFF116D0F16141173B92A532919
:1060A000C2A822C017A0950F80E293A884438FB79F
:1060B000C767E2A9BEE97E162333BA183BD0CEBC2F
:1060C0000EE7BBEC5FF1C2D75D5AC60B78D0B3B414
:1060D0007C6262CB3D5AD6F18983C75F94FBEC3A70
:1060E000C188BEA64D14A94852720FC4A85D1CCA2F
:1060F000B438891C82F6CC068C9EE6ECC92D891337
:10610000797012049FCD5B0623FC0A155E3EE72ED4
:10611000ECF775F9D333F08887FCD89D9A5BEFC90B
:10612000E315FC485E9B3DB93D946FB0AA55880DC0
:1061300050D06172A48F98AE4DB1FF303CB0C60311
:10614000294AF435CB20F4F04603455D6792695740
:106150004D50816638E884E860464794BD335DAFB2
:1061600075105FAE9A31BDCF84AE533EF395867CF9
:106170006635DE460D8099C641DADCD58A2E945EFE
:1061800063F4E5CA32637B9F342E587919A9049CC5
:1061900019970EAB03CB96885370D4842675CEBB6B
:1061A0002D48D5950B53A50C83D56971C2F60A53BA
:1061B0004FBB3B613C8A127E9DDEA7C91DE0B69FA6
:1061C000D1FCE2346C03AF837EB367DAC081286A06
:1061D000B64972AE7CD3BF1C1DD3FEDCEA7D983479
:1061E0009B2AD720A74C63013C85990DF69B0A9CFE
:1061F000C9AF96543D334DA4751DCF64DFDAF11954
:1062000064CC8AF7D64EEBEF7A0B2CBE0B2DEE9AB0
:106210008B13BA51DF964AC2CB7C9A6BDD4D50E1AD
:10622000FACFB5E0B23FE7EB4ADDDC2ABF4B3FF8DF
:10623000C441EA501D3EB16CE8C2D2847B7EAF7A85
:10624000A936559B51E4A3462A93869C71150B727F
:10625000839DDC8B23E96CEFC6C03A63ED81E1429C
:10626000655C897E521468389E548E58EB708E5D42
:10627000BEA1129769DD9A39BD88560B783A35B2BE
:106280001940A320115F72E07A332998F11BCBE10A
:1062900016C3A02F459D80667860D7D62EDE1F9D41
:1062A00099E41321E67C10843F3FB0B3B18091B7ED
:1062B000612B41A25807FE4C3297050A15875BA552
:1062C0000AA0A3A5FC3C830716D1D0C1B7FD2BF3D0
:1062D000F18022AF3A62E970E36C1C0501776AAC89
:1062E000E67C184EBE1FD9795657254C0D38D4C4BC
:1062F0003FD4BA56097C0F95E8DC854F9926E11109
:106300000084871927C2664BFA0F3E75A7BC39B1C6
:10631000C8F2C6DC1E2366CF14EFFC587173F46A12
:10632000CCCB4631FA099D1AD6061F5DEF8120A518
:106330002415F7CA48839948F32D734CF403ACFB3A
:10634000CF991230641E1A1FFFEBF1E50016ED1C09
:1063500010070D9EC62DFC39C28ECF2E632D3BC279
:106360004BEA16B7DC28EDD00683AD7AC0A79D3D79
:1063700072E1E46655B840A0283C6FAACE69A72315
:1063800056FC4FEAEF78BF950AFCA5688AFD7E406F
:106390007370272060B197CA0D9D5437B429A2FBB2
:1063A000E5EA2CF74FC891EC4B6022B2FD12B046E3
:1063B000BCC893AE4B2111D688C6FF5E64D86AA6CE
:1063C000FDAD462A3A9FFD74B3D1D0B54E2B04C61D
:1063D000DF2ECB8A9348D193B059B0A7414891CDD5
:1063E00089340B156B7298E7229E5D551FE4637725
:1063F0009BC050C7DB26EE0C7DCCADFFDFA7047F32
:1064000032A92766C1F0166172739295F4091F884C
:1064100068DC2CB64A711996F59ACDA83B74DC332A
:10642000A9E921AC2DE111468DE2CEF5BF8C19C250
:106430003B26F8B157AA82AB2F7EE9D4AF941FF563
:1064400009FA84D28419CD68F039995BC2E59CF9C8
:10645000A0C88322067617EE1B00F2A48D289116A1
:106460003B7BA629B4EB33943BBBCC647C63C23248
:10647000766D310EE61C4DB6D4BD642521A940864B
:10648000A5BC55268718F9BDDC21EBB6AB38CFCCBF
:10649000583CF231DC117F644E8D4A80B513808FF9
:1064A000A5F88224401F1C7FB55CEC1B9138349901
:1064B0003314D9B0DE7EBDB26DA43371105350D108
:1064C000766E4B116DD332690E772862B962454DF5
:1064D000837D213BB2D1999467EC06729A56EE2CDB
:1064E00013D69B8D5925ECD764C9008803033DC0A2
:1064F0002287340D6EB5E9F0FFDEB57065813B365D
:10650000FB967D3D1450F6ADC239000304D86210ED
:10651000D110E29DCB2CB4F024A883A02E9D14C0F2
:10652000D051046654A65EBB66CD45B964BCF4A8E0
:10653000E7EF6AD67EDC862FACDE0103DBC4AE1348
:1065400046E448BA54B45F9C6DE32DB5AF3FE9B261
:10655000B5AD34D6576FA300C3E3D871FEAAE3BD2F
:106560008356591BB7C8FE96E7348EFF5DFDE0C722
:10657000AEF1F76F2FD0497CB2437C89E7ADEC7E5A
:10658000B3CCA35085528444DDDDC0F31B88B668CC
:106590002B6B8221C95558D55F36BDA0412F7AECAF
:1065A000A9C65F2AF28AFEE80AC4060811CD68C7A8
:1065B0004D0AA1462B22E1030B74F55078D2284FE7
:1065C00029013669845A7AAE1ECCE97486C68F6D6D
:1065D000B9E49BC2A0F77C5795A89992826A1AE702
:1065E000FF911BE96C9306D9B49EBCEDBB73107D83
:1065F0000D7CC1FB0D38E6969CDF9F1962E65BEED1
:10660000E5B6E07A9361AC41526EBDF242794564E1
:106610009587954D3C37C4BDF167C7354AD894F985
:10662000CF1AACE9AB600D07B9EF81AB4B8E9A7B0B
:10663000D961781FED40288187D37DED8A4DD3C085
:106640006D02CFFCA7243F74A9E81116A13B5EDAC6
:1066500078E81B54D6A6583A14B3A77AE7EE12F797
:10666000722CBAE2FC143ED4EEF0929B6CEAAE6C53
:106670008436D0A7A68FAB5B7E6F615A852F65DF0E
:10668000DFC49E5FE4DBBA2F6FA44B1E6EA65A7563
:10669000CBEDCE4FBCF6935AAEBC788D026598898F
:1066A0002342DE93331CF5C9B0E8A3E7ACB851C26E
:1066B000056C23766CADC170E1A52A433D365CC202
:1066C0008B10E3294CDAF3276F7C9C1EC19F3C287A
:1066D000CD4568B3E5D2BD389252B491501156D829
:1066E0004F9EB77F33A784A4EBB14A299FFE77D092
:1066F000D1D9B0FB095A068BFEC7E7EF34762DFAE5
:10670000F15D125B9DF09AA3061BDD81C1B9436662
:106710001378C23DA5D5FA499265A41A2F947371D6
:10672000A2B28F04FAD6BDBB356B48F8AE96C7F45B
:106730007FBC8ADE87ECD4D66C9B3D49C958CA031E
:10674000447A3E474DB116B2048E5CFC7BB4EA42FB
:106750002866BD3BA2C09347DB16D9CBE71998F159
:106760000ECB842FE333E813A78EF6BD62BFFC6B1C
:1067700080A6430D00F4645EC0E83623A8D7E19CF0
:106780002A2579E28F8AEE81E7BFAA854A033E3D3A
:1067900095D8672CA8E4017233EA1926D6EBB871B4
:1067A0008EF2B87A330853380E62C4C78974006C0D
:1067B000173D0D9D54F1B449264EC75B8C75C9C277
:1067C000A0C865EA8B359811965FE9DAEC30408D08
:1067D0003CF6B54D73B1900003AC4E697DF97482FF
:1067E00012F36E03DD18ECE183E12C3142BA871815
:1067F0001949701FB0A25CB8AF3F08A431A54593FA
:106800009A799ECDF974A78DFCB4276960B0518345
:10681000201E068F3C8280156266EE0307C7D40CEB
:10682000D3BEDD2D3AC42E53A713C9CE25AD556076
:10683000C136C9C947B4C5BD5AF50636B948FD9831
:10684000E0DD53678FF29629195BB21C1D55DFBE40
:1068500022452ADC9D9276084E6E2EDB65EA8EB1CB
:10686000F9A076FC4263C7B4E68D9D7A66CADEF273
:106870005BB1CB8E8B2EAC7975DCAF640D8C04973D
:10688000339E1C510ECF9EB9612291D060671BF7D9
:10689000FBE5CAD4B1A393D0D0CBCB79AE946FD162
:1068A0001CC387DC83E6F8061D2A8D66233BAEDA1F
:1068B000FB1DFBA4C03DD7CA9BF6DDBAC8DD9BB16A
:1068C000758C40C0C4C73A9465B572CE6DDBE47177
:1068D000B1AC160C8A9C0F4B1AB2DB3B8980663A2E
:1068E0000656A060121FFFCAA274392B2ADA89DA71
:1068F000F3885ECCC8280DF5B6958D742245F99BBA
:1069000054ACD38D2BB3ED18007357D82203F0731A
:10691000FC301359767F94E7EEB7639368E67F8384
:106920007653544CB839798842C45A2612C130EB98
:10693000F8D0EA192721747A6831101559738E3608
:10694000147EBCED8B7D9B2B4986637647BF5BFE37
:10695000E0983224BF952CB355961211ACC939B2C8
:106960004FE908E0CFB56A23D62B8B4C9D5CBD3B2D
:10697000307CA06386DA8D1B42BCB2C1836F62E6B5
:10698000812BAD47F0270EE59623ABF3780D602FF2
:10699000F1C3C1A48B51C8E16A7390ED06D56A11A9
:1069A000D0C3E00BCA4BD3556A120E11E3ED76FB50
:1069B000F3E59E83E3AF5E395017CBAD7E6A31AE0F
:1069C00099A4A78A6AB9D2A31A8A5170A08007E253
:1069D0000521EEEA3063929BB26CD8140AA3823F81
:1069E0005A22800CDD0DF5EE2D2C82044DC95392F8
:1069F000640A48F9D2E1174AF4D7937E1D783E74B1
:106A0000EE5AFAC98FE8572753416B7AE8B971AE4D
:106A10005265C3E8F18089A54D27CFFA43BF66844C
:106A20008F845C3E33F8CDE3C4AC315B921F82D9D6
:106A30001445B3A36CE518FC7C66D7998613BF6632
:106A40009C5EF13927F81CB9947C907751BE820284
:106A50003E307C418045E31E0D3D32722EA873FE10
:106A6000297B332F5A75B8F882014ABB7DB8DDE027
:106A70001860E68B1A147A7CAB53E273AC22B05ADE
:106A80004B746DA74F0C903B42BE16345C83F78B62
:106A90009E010FF4B671440435567890B2AC810370
:106AA00094A0FDB6882C1D26142A1AD657D86B5DE3
:106AB0009F012381241FC50D27376C719B5AD0CBB2
:106AC0008CD5DB81770EEFFE8FB73D9E24C5B35288
:106AD0008D0F326C3CC760A4BDC7D2FC1B4E5D3F1E
:106AE000C10C3D5D27FCFDB4B05C14390F3B0E5862
:106AF000DE1CC4C0059BDC1B90E81440843ED854C7
:106B000017D126F55F3BE82F9A8C9DE0C0267AE7E7
:106B1000CED980C1D74C36266D1D3DFB66454C59FC
:106B2000B059F2E291BA57D519EFE00D8A233667D2
:106B30001C9FF7150BB0562B6F9E1B785E9F7D0B2D
:106B4000FAB41EAEB00174CBAA4BA339E3215C8E1C
:106B500070FCE1E2CC9528F5840E065E3FF89A328F
:106B60006FCF39ECE58233472A97B3BB5219FC4803
:106B7000277B3CB085EC134F468E9DCCF0C7172A7F
:106B8000DDBF1515EBBF56575D7A3E95926C128CA2
:106B90002F585AFC850081342100B04583062D44CE
:106BA000A8395A2ECEDC9C8D3BF2C43F4A78D106E0
:106BB0004F292670F5E11F00354872F864A690D879
:106BC00090499F3C1D548F9474F551F0C76DD63198
:106BD000D3E516D469BB3B748D952C733A693500A7
:106BE000060271EFFE95B8FD2A041D64EBEACB8224
:106BF0006B47043933409EC4D4F0E262BD5B30245D
:106C0000C9860C5898ADA689AF93E66FFC77CED6AF
:106C100000D36668F27B2F7A6A5EE6BDBE82032CE3
:106C200031BA766D6CB0662040C2C94F62E0D620A2
:106C3000A05D5544E26ED491A0A09786EBCFBB5BDC
:106C4000BD08772542FCBAF51C716513036B9C3BAC
:106C5000106C0440C2AE2D7FD3AD382D2279BA76A8
:106C600097CBC699AB6B0F1F768002400F181A287E
:106C70008D9C52A22D4268F0A802A83141BF266F18
:106C80009AE597D755642344A99E2DE630445425B0
:106C90004A376D95EBFD77FDBAF1E17C2166928F65
:106CA000845855B56D7091CA968C2E0D2CB42892CF
:106CB00008CD47AA426953FB19BDD06BC6858891A0
:106CC000D418863455F765B817E5DAFC9BB7986198
:106CD0007552B828738317527CACA9B95183A96641
:106CE000919E39CF53874CDB18900BDB448855A914
:106CF000EC0126F34D2133A29B10EBA7170C78066D
:106D00005D5C556A77C2384CBC8FD22536A28B9D0C
:106D1000D0D1C2776F094319DA892E6E1E3B9E6C63
:106D200095A33235F945BD5B334436B54E42525FCB
:106D30006D8C5E61B463AA28BAFB497B1080B5AE46
:106D40003F75AA9100B844ACE139AEA23020FCCE28
:106D5000F6E1BEB700BF97E993D362A7FFF7908F24
:106D6000390160F5F3D6150211CE9C9B0AD5A0EC33
:106D70000B168F5318885515FC03F47E9BEBC1E866
:106D8000BC650189CC299024DCF9F8FBD72C7475FB
:106D9000D6884BC2C6B07784057646D1A4D8F565AF
:106DA000CAD8B142AFF2451EFC75F90A5D33268E92
:106DB000309999A8EC248D41D6EE60D7C464B4C252
:106DC0000B88F9354821862244C6C972EE91358C6C
:106DD0003A4D2573A68E270A312C1FA5CEEA11C283
:106DE00012202577194E2A54EA21A61DBAACF3F9D0
:106DF000D3248BB8508BBA67EF1B14B75688CE16C6
:106E000076BC9D252CF2AC8002647ED4AEB020828C
:106E100028EC246CCE50215F512DD148F9CB14A918
:106E20008562C2BC7CD540F2620F96758993F1CA27
:106E300013FFDBCEB91A59AE14083D0956D4AEFE85
:106E40008D46F50E379292A1E2D2C206313A956A8A
:106E50002415D3AC97A8C5F7156E9F1FBC7B79335B
:106E60006C741AF46D19AD83433938CBE70AEAD351
:106E70006DB3BE5F3F885995C68C5A98AD872A423C
:106E800048F0BD95C4E26EB553056A62AC5EA56F6D
:106E9000D2AF2C1EF787176C59658381FAD1FBF2AC
:106EA000AD56B0C9B20980449124EAA596154EB7F3
:106EB000B35044A8272EF47A1860B7A8D2076D39CA
:106EC000D1016140E344EB35C910A2A7ADB9F0622E
:106ED000460E7F5D1991A0A3C40A774DF970622711
:106EE000CCFB5528B3C50892876D5832E62FDC1BC2
:106EF00095A8D226CE1EBEFE7E7E7E7E5F3CDB3413
:106F0000CB14AAD60F9CBAD72CDA17ACBBD528B3B2
:106F1000E42BB5C9F141E140E3440A776C3BD52845
:106F2000B3C50873642BD40B948B75491083848A82
:106F300096AEDE1FBCFA766E5E3EFE5F1DB8D324B1
:106F4000CA16AEDE3EDF1DB8D324ABD40B948B75CE
:106F500049F16023C40A96AEDE1F9DB8D324ABD49A
:106F60000B94AAD60F7D787247ED5813A4ABD42AA0
:106F7000D60F7D7853058873644AF76C3BF44BF564
:106F800049F141E140E325A9B1C1E121A1C0028657
:106F90006F3DD930E246EF5C3AD72CDA17ACBBD55F
:106FA00028D226AFBDD91181806325A9D022C60E73
:106FB0007F7C5B34EA560F7D5930E227ADB9D101B1
:106FC000614002866F5C3AF66E3FDD199181612166
:106FD000A1A1A1C0E3440A776C3BD528D2078C7BE2
:106FE000744B148B94AAD62EDE1FBCFA766E5E3ECE
:106FF000DF1D99B0C3048A968F9CD84016190000F3
:04000005000000C136
:00000001FF
