:10EFFB00029D110000C2AF758170E4F5B175B2804E
:10F00B007F05FE12FBA575B20C12F5A2753BEF75D1
:10F01B003CFB853C82853B83E4936402602A758FBD
:10F02B00017FF47E0112FBA575B2087F057E0012ED
:10F03B00FBA575BC027FD07E0712FBA575BC0375C3
:10F04B00B20C12FADA12FC0302FC2BE54264AA6042
:10F05B000302F12DF542752F11753008E524B40527
:10F06B00140530E530AE2F7002052F14F5828E8318
:10F07B007405F080120530E530AE2F7002052F14A9
:10F08B00F5828E837406F00530E530AE2F700205E5
:10F09B002F14F5828E837449F0753B0C753C0085FB
:10F0AB003C82853B83E493FF0530E530AC2F700247
:10F0BB00052F14F5828C83EFF0753B0C753C0185A5
:10F0CB003C82853B83E493FF0530E530AC2F700227
:10F0DB00052F14F5828C83EFF0753B0C753C028584
:10F0EB003C82853B83E493FF0530E530AC2F700207
:10F0FB00052F14F5828C83EFF0753B0C753C038563
:10F10B003C82853B83E493FF0530E530AC2F7002E6
:10F11B00052F14F5828C83EFF0539BF0759B08023F
:10F12B00F25F752F11753008E524B405140530E531
:10F13B0030AE2F7002052F14F5828E837405F0808C
:10F14B00120530E530AE2F7002052F14F5828E8339
:10F15B007406F00530E530AE2F7002052F14F582E2
:10F16B008E837472F0E521B4010885313B85323C06
:10F17B008006753BF0753C00E53C453B705A05300D
:10F18B00E530AE2F7002052F14F5828E837402F0DA
:10F19B00753BEF753CFC853C82853B83E493FF0517
:10F1AB0030E530AC2F7002052F14F5828C83EFF015
:10F1BB00753BEF753CFD853C82853B83E493FF05F6
:10F1CB0030E530AC2F7002052F14F5828C83EFF0F5
:10F1DB00753B00753C038057853C82853B83E493EC
:10F1EB00FF0530E530AC2F7002052F14F5828C83B0
:10F1FB00EFF012FBED853C82853B83E493FF0530FA
:10F20B00E530AC2F7002052F14F5828C83EFF012D2
:10F21B00FBED853C82853B83E493FF0530E530AC09
:10F22B002F7002052F14F5828C83EFF012FBED8506
:10F23B003C82853B83E493FF0530E530AC2F7002B5
:10F24B00052F14F5828C83EFF0E524B4050A539B4C
:10F25B00F0439B064397042212FBED853C82853BD2
:10F26B0083E493FF0530E530AC2F7002052F14F5C6
:10F27B00828C83EFF012FBED853C82853B83E4931C
:10F28B00853082852F83F0539BF0439B0843970473
:10F29B00E4F5B1E59720E2FBE4FF539BF0439B08B9
:10F2AB00752F1175300812FBED853C82853B83E48D
:10F2BB0093FE0530E530AC2F7002052F12FBE6856F
:10F2CB003C82853B83E493FE0530E530AC2F700226
:10F2DB00052F12FBE6853C82853B83E493FE0530CC
:10F2EB00E530AC2F7002052F12FBE6853C82853B87
:10F2FB0083E493FE0530E530AC2F7002052F12FB33
:10F30B00E6853C82853B83E493FE0530E530AC2FEC
:10F31B007002052F12FBE6AC3BAD3CBCEF34BDFBE2
:10F32B00310530E530AC2F7002052F14F5828C833C
:10F33B00E4F00530E530AC2F7002052F14F5828C0C
:10F34B0083E4F0853082852F83F0753BEF753CFDB0
:10F35B00803B853C82853B83E493FE0530E530ACF6
:0DF36B002F7002052F12FBE6853C82853BCA
:10F3780083E493FE0530E530AC2F7002052F12FBB5
:10F38800E6853C82853B83E493853082852F83F034
:10F39800439704E4F5B1E59720E2FB0FEFF460032F
:10F3A80002F2A5539BF0439B02752F11753008128A
:10F3B800FBED853C82853B83E493FF0530E530AC6B
:10F3C8002F7002052F14F5828C83EFF012FBED8568
:10F3D8003C82853B83E493853082852F83F0439775
:10F3E80004E4F5B1E59720E2FB12FBED853B31859E
:10F3F8003C3222E4F54212FBD5E52324BB7003021C
:10F40800F52824FC700302F59224F4700302F553E6
:10F4180024FE602B24FD700302F56724F1700302BB
:10F42800F56C24F2602B2425600302F595E4F53190
:10F43800F532E5324525F531E524F53202F595E456
:10F44800F533F534E5344525F533E524F53402F58F
:10F4580095D3E4953474F09533500302F595E5346B
:10F468004533701AAD257FFC7EEF12FB0CAD267F6D
:10F47800FD7EEF12FB0C7533007534038024AD2438
:10F48800AF34AE3312FB0C12FC0EAD25AF34AE33E5
:10F4980012FB0C12FC0EAD26AF34AE3312FB0C126D
:10F4A800FC0EAD27AF34AE3312FB0CE522B40503D6
:10F4B80002F595E5226406600302F59512FC0EAD8F
:10F4C80028AF34AE3312FB0C12FC0EAD29AF34AEAC
:10F4D8003312FB0CE4F50A12FBD5E4F50B12FC0E13
:10F4E8007422250BF8E6FDAF34AE3312FB0C050B86
:10F4F800E50BC3940840E6050AE50AC394FF40D724
:10F5080012FBD512FC0EAD22AF34AE3312FB0C1237
:10F51800FC0EAD23AF34AE3312FB0C12FC0E806D23
:10F52800750A78E50A14FF12FB37150AE50AD39421
:10F538000050F07DF07F017E0012FB0CE4FD7F029D
:10F54800FE12FB0C7D02E4FFFE800C539BF04397F8
:10F55800047D027FFB7EEF12FB0C752101802E7566
:10F56800B10780FEAD247FF77EEF12FB0CAD257F3F
:10F57800F87EEF12FB0CAD267FF97EEF12FB0CAD87
:10F58800277FFA7EEF12FB0C80037542AA539BF08B
:10F598004397045392AF43970122C204750896E437
:10F5A800F5B153E9FC53E1FC7F0AFE12FBA530815B
:10F5B8000302F72120800302F721D204D508E07561
:10F5C8000C1453E9FC53E1FCC28143E10243E90115
:10F5D8007F017E0012FBA553E9FC53E1FC43E902DD
:10F5E8007F0A7E0012FBA5750964E4F5B13081033A
:10F5F800208004C2048003D509F020040302F6C960
:10F6080053E9FC53E1FCC28143E10243E9017F0174
:10F618007E0012FBA553E9FC53E1FC43E902C280DA
:10F6280043E1017F0A7E0012FBA5750964E4F5B188
:10F63800208103308004C2048003D509F02004032C
:10F6480002F6C953E9FC53E1FCC28143E10243E9F4
:10F65800017F017E0012FBA553E9FC53E1FC7F0A00
:10F668007E0012FBA5750964E4F5B12081032080B2
:10F6780004C2048003D509F030044653E9FC53E181
:10F68800FCC28143E10243E9017F017E0012FBA530
:10F6980053E9FC53E1FCC28143E1027F0A7E001278
:10F6A800FBA5750964E4F5B1208103208004C20438
:10F6B8008003D509F0300409150CE50C600302F548
:10F6C800CA30045753E9FC53E1FC750903753BEF55
:10F6D800753CFB853C82853B83E493B4020BE4F5DF
:0DF6E800B17F7712FB37D509E443E90253E7
:10F6F500E1FD300409C204C28043E1018005D20462
:10F7050053E1FE750AC3750B50E50B450A60DDE450
:10F71500F5B1E50B150B70F1150A80EDC20453E93F
:10F72500FC53E1FC2205010906A101850105071924
:10F73500E029E715002501750195088102950675F3
:10F7450008150026FF00050719002AFF008100C0E3
:10F755000600FF0901A1018505150025FF190129ED
:10F765000575089505B102C00600FF0901A10185CF
:10F7750006150025FF190129027508960108B10231
:10F78500C01201100100000008030620100001004E
:10F7950000000109021B000101008032090400007C
:10F7A5000003000000092111010001225C00FFFC9B
:10F7B5001EFFFB84FFFC25FFF7DDFFF056FFF3FB83
:10F7C500FFFBF6000501000902800603810603A17F
:10F7D5000104210905210A06E5256401702EF53588
:10F7E500753612E529F52DE528F52EC3E52E953656
:10F7F500E52D95355006AE2DAF2E8004AE35AF36CE
:10F805008E358F36753BF7753C86806FE52564022E
:10F81500702EF53575361BE529F52DE528F52EC332
:10F82500E52E9536E52D95355006AE2DAF2E800487
:10F83500AE35AF368E358F36753BF7753C98803BC8
:10F84500E52564227032E526702E753BF7753C2A56
:10F85500F53575365CE529F52DE528F52EC3E52E3C
:10F865009536E52D95355006AE2DAF2E8004AE3577
:10F87500AF368E358F36800302FC1E12F98543970D
:10F885000422787FE4F6D8FD75814302F8CE02F0B4
:10F8950000E493A3F8E493A34003F68001F208DFA4
:10F8A500F48029E493A3F85407240CC8C333C45443
:10F8B5000F4420C8834004F456800146F6DFE480F7
:10F8C5000B010204081020408090FC37E47E019370
:10F8D50060BCA3FF543F30E509541FFEE493A360C9
:10F8E500010ECF54C025E060A840B8E493A3FAE424
:10F8F50093A3F8E493A3C8C582C8CAC583CAF0A375
:10F90500C8C582C8CAC583CADFE9DEE780BE85925D
:10F9150037E537604B5392E753929FE53730E7055C
:10F9250053927F803BE53730E40512FA4E8031E58E
:10F935003730E2055392FB8027E53730E1055392D6
:10F94500FD801DE53730E0185392FE4391200000FD
:10F95500000000005391DF12FBC15392AF439701A2
:10F96500859338E538601830E40A5393EF5392AF26
:10F9750043970122E53830E0065393FE12FB5E22E1
:10F98500E53645357007754302539BF022D3E536BE
:10F995009408E5359400401F75430174F82536F544
:10F9A5003674FF3535F53512FAA27408253CF53C59
:10F9B500E4353BF53B8013E5366408453570127533
:10F9C500430212FAA2E4F535F536539BF0439B0842
:10F9D50022754302AD3612FAA4539BF0E536429BDD
:10F9E500E4F535F53622752F1175300085308285A1
:10F9F5002F83E0F522A3E0F523853082852F83A3AD
:10FA0500A3E0F524853082852F83A3A3A3E0F52504
:10FA1500E5302404F582E4352FF583E0F526E5305D
:10FA25002405F582E4352FF583E0F527E530240636
:10FA3500F582E4352FF583E0F528E5302407F582D6
:10FA4500E4352FF583E0F529227508F77509C81205
:10FA5500F9EBE4F541850982850883E493B5220D28
:0DFA6500740193B52307740293F5418016D8
:10FA720074032509F509E43508F508C3E50994DDA1
:10FA8200E50894F740D2E54175F003A424B3F5826A
:10FA9200E434F7F583740193FA740293F902FC31AA
:10FAA2007D08AF3CAE3B8E0A8F0B752F1175300867
:10FAB200E4FFEFC39D5020850B82850A83E493FE09
:10FAC200E5302FF582E4352FF583EEF0050BE50BDB
:10FAD2007002050A0F80DB22E4F580F5E9F5E1F515
:10FAE20090F5EAF5E2F598F5EBF5E3F5A0F5ECF51E
:10FAF200E4F5B0F5EDF5E5F588F5EEF5E6F5C0F5DA
:10FB0200EFF5E7F5F8F5D9F5D122AB07AA06E4F54A
:10FB1200B18AF78BFB8DFC75F26E75F30575F40AED
:10FB220075F50975F60600000000F5F2F5F3F5F437
:10FB3200F5F5F5F622E4F5B1EF25E0F5F775F2E615
:10FB420075F30575F40A75F50975F60600000000EF
:10FB5200E4F5F2F5F3F5F4F5F5F5F622E543B40133
:10FB62000812F9854397048012E543B4020A5392BE
:10FB7200AF439701439708224397085392AF4397A5
:10FB82000122E4F543539BF0439702439704E59324
:10FB920030E0FB5393FE8524964397085392AF437C
:10FBA20097012200EF600B1F000000000000000020
:10FBB20080F2EE60051E7FFF80EA00000000224313
:10FBC20091C0E4F592F593759457759511F59643A6
:10FBD200A901225392AF439701E59330E4FB53937B
:10FBE200EF02F9EB14F5828C83EEF0053CE53C70F4
:10FBF20002053B22AF258F2C8F3D539BF043970488
:10FC02002212FBC1E4F5B112F91380F80534E53490
:10FC12007002053322539BF0439704224397084313
:10FC2200970222E4F54302FC1702EFFB0200008A6E
:10FC3200838982E4730000000000000000000000DD
:10FC420000000000000000000000000000000000B2
:10FC520000000000000000000000000000000000A2
:10FC62000000000000000000000000000000000092
:10FC72000000000000000000000000000000000082
:10FEFF0000645A702CE5F064A57026C2AF7581704E
:10FF0F00F5B112FADAE4F591F592F593F594F595CA
:10FF1F00F596F5B17FD07E0712FBA5E4F5B112FC83
:10FF2F000302FC2B00000000000000000000000096
:10FF3F0000000000000000000000000000000000B2
:10FF4F0000000000000000000000000000000000A2
:10FF5F000000000000000000000000000000000092
:10FF6F000000000000000000000000000000000082
:10FF7F000000000000000000000000000000000072
:10FF8F000000000000000000000000000000000062
:10FF9F000000000000000000000000000000000052
:10FFAF000000000000000000000000000000000042
:10FFBF000000000000000000000000000000000032
:10FFCF000000000000000000000000000000000022
:10FFDF000000000000000000000000000000000012
:10FFEF000000000000000000000000000000000002
:01FFFF000001
:0300000002F0000B
:109D110078FFE4F6D8FD9000007F007E10E4F0A308
:0A9D2100DFFCDEFA75818C029D66FE
:10B14A00E4F5C8F5C975CA2F75CBF875CC2F75CD3E
:04B15A00F8D2CA223B
:0300030002A0E177
:10A0E100C0E0C0D075D000C006C007C086C0A705BB
:10A0F1001BC3E51B9410748094804005751B00D22E
:10A1010047051AAF1A7E00C3EF940874809480400B
:10A1110007751A00D2468006EF64044E7006D245D8
:10A12100D244800EEF64024E6006EF64064E700268
:10A13100D244D243050BE50B7002050AD394E8E53E
:10A141000A9403400E750A00750B000510E51070A6
:10A1510002050FC2CFD0A7D086D007D006D0D0D06D
:02A16100E032EA
:0300430002AA2BE3
:10AA2B00C0E0C0F0C083C082C0D075D000C000C0F1
:10AA3B0001C002C003C004C005C006C007C086C069
:10AA4B00A71289D2D0A7D086D007D006D005D004C4
:10AA5B00D003D002D001D000D0D0D082D083D0F0A0
:03AA6B00D0E03206
:03000B0002B253EB
:06B2530075E800D2423252
:0300130002B259DD
:06B2590053B6FDD24232A3
:03001B0002B25FCF
:06B25F0053B6FED242329C
:03003B0002AA6EA8
:10AA6E00C0E0C0F0C083C082C0D075D000C000C0AE
:10AA7E0001C002C003C004C005C006C007C086C026
:10AA8E00A71296E1D0A7D086D007D006D005D00465
:10AA9E00D003D002D001D000D0D0D082D083D0F05D
:03AAAE00D0E032C3
:0100120022CB
:1088C100E4F5B112AF4BC253C248D2A8D2AFE4F51E
:1088D10014C3E5149408748094805011E4F5B17FB9
:1088E100507EC31270D2E4F5B1051480E4126C3BE2
:1088F100E4F5B1129DABE4F5B112730290FF8074FF
:10890100CAF043A902E4F5B130490B300408304BF9
:1089110003127DF9C249303B08200405C23B127D98
:10892100F9E4F5B112A364303E25C23E126E9D12E8
:10893100B13412A59D122CFE3004081291E8128761
:10894100AE8006127C961299C2203C03128CED3047
:108951004308C2431206CD122CFE304632C24620D5
:10896100592D12B1AB124BE912A99E1254CD1246E8
:108971009F129108128BE81281FA127F541293A070
:1089810012671012832B125E8D12769512A6CB20E0
:108991004703028906E4F5B1128DEB12414B12AD8A
:1089A10063129A70305525E4F5B11299C2900922EB
:1089B100E004F07006900921E004F0D3900922E070
:1089C10094DC900921E0940540DAC255C24702893E
:0189D100069F
:1070D200E4FDFCC3ED9FEC9E5021E4F5B1000000FD
:1070E200000000000000000000000000000000009E
:0B70F200000000000DBD00010C80D864
:0170FD002270
:107DF900C2AFC2A812AE2553D9EF43D11053F8EF41
:107E090053EFC043E73F53C0C053EE7843E687536F
:107E1900887853ED9243E56D53B09253E9DF43E11E
:107E2900205380DF53EAC043E23F5390C053EBC075
:107E390043E33F5398C053ECC043E43F53A0C053BE
:107E4900D97F53D1BF53F8BF53EE9F53E69F538851
:107E59009F53E93F53E13F53803F43D14053F8BF1C
:107E6900C2FE53E1F753E57F53E1EF53E1FB53D1F1
:107E7900DFD253E4200430F5B675E8F375BAF3435D
:107E8900A802D2AF43910153B2FB53BCFE53BCFDD0
:107E990053B2F743948553927AF5A953913B538F83
:107EA900FE000000008022F5E875BAF375B6C043FC
:107EB900A802D2AF43910153B2FB53BCFE53BCFDA0
:107EC90043948553927A75A9010000000000758ECC
:107ED90055438702000000000000E4F5B1C2AFF588
:107EE900B6F5E8F5BA53A8FD75B2087F05FE12701C
:107EF900D243BC027F211270D2E4F5B175BC03757F
:107F0900B20C7F051270D25392FD5391FE758F0109
:107F1900439102C24275945F43A90143A90290FFAC
:107F29008074CAF090FFE8E4F090FFD0F012A7291E
:107F390012000E12B172C249C253128451E4900860
:0B7F490068F0A3F0D254D2AFD2A822FF
:10AF4B0012000E12B074E4F5B17FFAFE1270D2E467
:10AF5B00F5B112A72912B14A12B26512B1E212B2BF
:07AF6B006B12B17202B10884
:10B07400E4F5B175B2087F5E7E011270D275BC0230
:10B084007F157E021270D2E4F5B175BC0375B20C63
:01B094002299
:10A7290075E1F475E23F75E33F75E43F75E5ED7555
:10A73900E68775E7FF75D17075E9E075EA3F75EB56
:10A749003F75EC3F75ED6D75EEFF75EFFF75D95FE0
:10A759007580E4E4F590F598F5A075B0ED758887F6
:10A7690075C0FF75F810758C05F5A5758C45F5A6AE
:0BA77900758C85F5BB758CC5F58D2235
:10B1080043A80175A901E4F5BAF5B6F5B4F5B87523
:06B11800B50275B9022228
:1073020090FF80748AF0A37408F0A3F0A3F0A3F0B6
:10731200A3F090FF9C7404F090FF987438F090FFF3
:10732200B8E4F090FFA07435F090FFE8E4F090FF2D
:10733200D07435F090FFB9E4F090FFA17436F0906C
:10734200FFE9E4F090FFD17436F090FFBAE4F090D8
:10735200FFA27437F090FFEAE4F090FFD27437F0A6
:1073620090FFBBE4F090FFA37432F090FFEBE4F0E7
:1073720090FFD37432F090FFBCE4F090FFA474331A
:10738200F090FFECE4F090FFD47433F090FFBDE492
:10739200F090FFA57434F090FFEDE4F090FFD57407
:1073A20034F090FF86748AF0A37408F0A3F0A3F07F
:1073B200A3F0A3F090FF9D7404F090FF997438F04D
:1073C20090FFBEE4F090FFA6742CF090FFEEE4F084
:1073D20090FFD6742CF090FFBFE4F090FFA7742DBD
:1073E200F090FFEFE4F090FFD7742DF090FFC0E42F
:1073F200F090FFA8742EF090FFF0E4F090FFD874A4
:107402002EF090FFC1E4F090FFA9742FF090FFF1ED
:10741200E4F090FFD9742FF090FFC2E4F090FFAA3D
:107422007430F090FFF2E4F090FFDA7430F090FFE5
:10743200C3E4F090FFAB7431F090FFF3E4F090FFFF
:10744200DB7431F090FF8C748AF0A37408F0A3F01F
:10745200A3F0A3F0A3F090FF9E7404F090FF9A743F
:1074620038F090FFC4E4F090FFAC7426F090FFF483
:10747200E4F090FFDC7426F090FFC5E4F090FFADDD
:107482007427F090FFF5E4F090FFDD7427F090FF91
:10749200C6E4F090FFAE7428F090FFF6E4F090FF9F
:1074A200DE7428F090FFC7E4F090FFAF7429F090EB
:1074B200FFF7E4F090FFDF7429F090FFC8E4F0904A
:1074C200FFB0742AF090FFF8E4F090FFE0742AF025
:1074D20090FFC9E4F090FFB1742BF090FFF9E4F053
:0774E20090FFE1742BF02282
:06B26500E4F5A2F5A122B0
:10B1E200E4F587F5D8F5ADF5AEF5AFF5ABF5AC22E4
:06B26B00E4F5B3F58922B1
:04000E00758F0122C7
:10B17200E4F59675945F7595117591C0900868F025
:03B18200A3F02215
:10710800260342006C007500650074006F006F0074
:107118007400680020004B006500790062006F0071
:107128006100720064001803530049004E004F00CC
:1071380020005700450041004C00540048000A0355
:1071480030003000300031001003420059002000A8
:107158005400650063006800000403090405010980
:1071680006A101050719E029E7150025019508750D
:107178000181029501750881039506750815002699
:10718800FF00050719002AFF0081002501950575F4
:10719800010508190129059102950175039103C09C
:1071A80005010980A101850119812983150025019F
:1071B80075019503810295058101C0050C0901A19E
:1071C80001850219002A3C021500263C029501752A
:1071D800108100C00600FF0901A1018505150026E0
:1071E800FF001901290275089505B102C0050109BA
:1071F80006A10185060507190429701500250175E2
:107208000195788102C00600FF0901A101850A15D0
:107218000026FF00090075089540B102C012011050
:1072280001000000088A25A10000100102000109E0
:10723800023B00020100A0FA090400000103010159
:1072480000092111010001224300070581030800FC
:1072580001090401000103000000092111010001D6
:10726800227D000705820310000109211101000198
:10727800224300092111010001227D00FFB230FFE5
:10728800B1BEFFAB2FFFB1D0FFAC90FF30F1FFAD27
:10729800F6FFAD96FF0016FFA784FFA879FF9C7044
:1072A800FF5835FFAEA6FFAFBFFFA44DFF9BC9FF38
:1072B800B185FF10DAFFAF23FFA8C3000101020167
:1072C80002000303020304000505000906010B0779
:1072D80000070880000980060C81060C80080D81D3
:1072E800000A82000B810A0EA1010F210910210A50
:0A72F80011A10212210B13A10314CF
:1096E100900871E592F0E0606730E3145392F7124D
:1096F1000012E4900924F0A3F0D22DF50FF5102209
:109701005392E753929F900871E030E70653927F9E
:1097110002B172900871E030E403029EC6900871B4
:10972100E0FF30E2045392FB22EF30E1065392FD59
:1097310002B0CD900871E030E0645392FEC24B4319
:1097410091200000000000005391DF12B1728029C6
:10975100900872E593F0E0604530E6075393BF430C
:109761009A0122900872E0FF30E5045393DF22EF63
:1097710030E40D5393EF12A4BF5392BF43970122DC
:10978100900872E0FF30E2045393FB22EF30E104D2
:0F9791005393FD22EF30E0065393FE12A90C22F2
:109EC6009008A47472F0A374C3F0C2AF12A163D257
:109ED600AFE4900878F09008A4E0FEA3E0FFF582D6
:109EE6008E83E493FD900856E0FCEDB504258F8241
:109EF6008E83740193FF900857E0FEEFB506149029
:109F060008A4E0FEA3E0F5828E837402939008789D
:109F1600F0801B9008A5E02403F09008A4E034002C
:109F2600F0C3A3E094029008A4E0947340A89008BC
:109F360078E075F003A42484F582E43472F5837422
:0A9F46000193FA740293F9027B16EE
:07B230004397084397022237
:10B1BE00E4900881F0900856E0541F7002C24802D5
:02B1CE00B23796
:10AB2F00E4900881F0900856E0541F6402702A9058
:10AB3F00085AE0FF7E0070085397F75397FD80196E
:10AB4F00EF64814E70055399F7800EEF64824E705B
:0DAB5F0005539AF7800302B23012B237227C
:10B1D000E4900881F0900856E0541F7002D24802B3
:02B1E000B23784
:10AC9000E4900881F0900856E0541F640270209000
:10ACA000085AE0FF7E00648170054399088013EF25
:10ACB00064824E7005439A08800812B23080030205
:06ACC000B23012B237228F
:0F30F100E4900881F0539BF04397024397042229
:10ADF600E4900881F0E596601C900858E0600464D1
:10AE0600017012900858E090086AF0D24B539BF0FC
:0FAE1600439704800312B23012B23743A80122CF
:10AD9600E4900881F0900858E0FF7E007008900863
:10ADA6005AE07002800CEF4E701290085AE064016F
:10ADB600700A539BF04397044397022212B2302243
:0300160002B23003
:10A784009008817402F0900856E0541F7042539B65
:10A79400F0439B029008827411F0A37408F09008AF
:10A7A40082E475F00130480D127A6085F082F583F9
:10A7B4007402F0800A127A6085F082F583E4F090E6
:10A7C4000882E0FEA3E0F5828E83E4F0439704223E
:04A7D40012B230226B
:10A87900900856E0541F6401703C90085AE0600447
:10A8890064017032539BF0439B029008827411F06B
:10A89900A37408F0900882E475F001127A6085F0DB
:10A8A90082F583E4F0900882E0FEA3E0F5828E83CE
:0AA8B900E4F04397042212B23022AB
:109C7000900856E0541F64026003029D0D539BF050
:109C8000439B0290085AE0F9FF7E00648070319097
:109C900008827411F0A37408F0E5975402C313FD11
:109CA000900882E475F001127A6085F082F583ED08
:109CB000F0900882E0FCA3E0F5828C83E4F0804918
:109CC000EF64814E700E9008827411F0A37408F056
:109CD00055998011E9648270349008827411F0A360
:109CE0007408F0559A131313541FFF900882E475FB
:109CF000F001127A6085F082F583EFF0900882E03F
:109D0000FEA3E0F5828E83E4F04397042212B23082
:019D10002230
:10583500900859E0F9FD7C006401703F900876748A
:1058450072F0A37425F090086FE4F0A37412F09041
:10585500085DE0FE90085CE0FBEBFF90086DEEF064
:10586500A3EFF0C39412EE9400500590086D8003E9
:1058750090086FE0FEA3E0FF025B58ED64024C70F8
:105885003F9008767472F0A37437F090086FE4F0D7
:10589500A3743BF090085DE0FE90085CE0FDEDFF31
:1058A50090086DEEF0A3EFF0C3943BEE9400500525
:1058B50090086D800390086FE0FEA3E0FF025B583F
:1058C500E964036003025A2D900858E0F9FD7C0055
:1058D500703F9008767471F0A37461F090086FE4DE
:1058E500F0A37404F090085DE0FE90085CE0FBEB2B
:1058F500FF90086DEEF0A3EFF0C39404EE94005012
:105905000590086D800390086FE0FEA3E0FF025B41
:1059150058ED64014C703F9008767471F0A3742EB5
:10592500F090086FE4F0A37418F090085DE0FE9025
:10593500085CE0FDEDFF90086DEEF0A3EFF0C39479
:1059450018EE9400500590086D800390086FE0FEF6
:10595500A3E0FF025B58E9FD7C006402703F9008FC
:10596500767471F0A37408F090086FE4F0A37426C0
:10597500F090085DE0FE90085CE0FBEBFF90086DA1
:10598500EEF0A3EFF0C39426EE9400500590086D59
:10599500800390086FE0FEA3E0FF025B58ED64030F
:1059A5004C703F9008767471F0A37446F090086FC0
:1059B500E4F0A3740AF090085DE0FE90085CE0FD59
:1059C500EDFF90086DEEF0A3EFF0C3940AEE94009E
:1059D500500590086D800390086FE0FEA3E0FF027C
:1059E5005B58E9F4703F9008767471F0A37450F039
:1059F50090086FE4F0A37411F090085DE0FE900844
:105A05005CE0FDEDFF90086DEEF0A3EFF0C394119F
:105A1500EE9400500590086D800390086FE0FEA39A
:105A2500E0FF025B58025B64900859E06422600362
:105A3500025AC6A3E0FD7C00703F9008767471F0B1
:105A4500A37465F090086FE4F0A37443F090085DCB
:105A5500E0FE90085CE0FBEBFF90086DEEF0A3EF35
:105A6500F0C39443EE9400500590086D80039008B0
:105A75006FE0FEA3E0FF025B58ED64014C703F90C0
:105A850008767471F0A374A8F090086FE4F0A3741D
:105A95007DF090085DE0FE90085CE0FDEDFF90086C
:105AA5006DEEF0A3EFF0C3947DEE940050059008E1
:105AB5006D800390086FE0FEA3E0FF025B58025B78
:105AC50064900859E064216003025B64A3E0FD7CF7
:105AD50000703E9008767472F0A37472F090086FAF
:105AE500E4F0A37409F090085DE0FE90085CE0FB2B
:105AF500EBFF90086DEEF0A3EFF0C39409EE940070
:105B0500500590086D800390086FE0FEA3E0FF80CC
:105B150042ED64014C70469008767472F0A3747B74
:105B2500F090086FE4F0A37409F090085DE0FE9032
:105B3500085CE0FDEDFF90086DEEF0A3EFF0C39477
:105B450009EE9400500590086D800390086FE0FE03
:105B5500A3E0FF90086FEEF0A3EFF0800580000250
:0C5B6500B23012A05E5393FE439704225E
:10AEA6009008817402F0539BF0759B01A37411F016
:10AEB600A37408F090086AE0FF900882E0FCA3E023
:0AAEC600F5828C83EFF0439704221D
:10AFBF009008817402F0539BF0759B01A37411F0FC
:10AFCF00A37408F0900882E0FEA3E0F5828E83E47C
:05AFDF00F0439704227D
:10A44D0090087EE0703990087DE0703390087BE0D5
:10A45D00702DA3E06402702790085CE0FF7020531C
:10A46D009BF0EF429B9008827411F0A37408F0905A
:10A47D000882E0FEA3E0F5828E83E52DF0802B901F
:10A48D000858E0640A7027A3E064037021A3E06418
:10A49D0001701B90085CE064417013A3E0700F9095
:10A4AD00086FF0A37441F01280A84397042212B2F2
:02A4BD0030224B
:109BC900900858E0701FA3E064027019A3E07015B3
:109BD900A3E07011A3E06401700BA3E07007900883
:109BE9008174048043900858E07021A3E0640270F6
:109BF9001BA3E064017015A3E07011A3E064017078
:109C09000BA3E070079008817406801C900858E047
:109C1900FF7E0064057014A3E06403700EA3E06482
:109C29000170089008817405F08031EF640A4E7064
:109C390032900859E06403702AA3E064017024900B
:109C4900085CE06441701CA3E07018900873F0A3ED
:109C59007441F0900881740AF0539EF05392BF4307
:079C690097012212B2302224
:10B18500900859E090086CF0900875F0539BF043D7
:03B19500970422FA
:1010DA009008827411F0A37408F0900875E0FF90EC
:1010EA000882E0FCA3E0F5828C83EFF0539BF07555
:0610FA009B014397042254
:10AF230090085AE0FF7E00700A900858E090086984
:10AF3300F0800EEF64014E7008900858E090086BA3
:08AF4300F0539BF04397042238
:10A8C3009008827411F0A37408F090085AE0FF7E98
:10A8D300007014900869E0FD900882E0FAA3E0F5A7
:10A8E300828A83EDF08018EF64014E701290086B3A
:10A8F300E0FF900882E0FCA3E0F5828C83EFF05345
:09A903009BF0759B0143970422AF
:10B0CD00900868E0D394C8748094804003D24922DC
:0AB0DD00304B06900868E004F022F2
:10A4BF00900881E0FF7E0064047018F0A37411F01F
:10A4CF00A3E4F0900882E0FCA3E0F5828C83E0F532
:10A4DF002D8047EF64064E7006900881F0803B9008
:10A4EF000881E0640A7005F5B10297A0900881E039
:10A4FF0064057021F0A37411F0A3E4F0900882E0DA
:10A50F00FEA3E0F5828E83E064057014A3E0248B34
:10A51F00700E02B21AE4900881F0539BF043970437
:01A52F002209
:10A90C00900881E064017015304A051280A880031C
:10A91C0012A05E4397045392BF4397012290088183
:10A92C00E06402700A5392BF439701439708224395
:10A93C0097085392BF439701900856E0700AA3E022
:09A94C0064057004A3E0F59622F5
:10A163009008827411F0A3E4F0900882E0FEA3E06B
:10A17300FFF5828E83E0900856F08F828E83A3E0F2
:10A18300900857F0900882A3E0F5828E83A3A3E0A2
:10A19300900858F08F828E83A3A3A3E0900859F010
:10A1A300900882A3E02404F582E43EF583E090085E
:10A1B3005AF0EF2405F582E43EF583E090085BF066
:10A1C300900882A3E02406F582E43EF583E090083C
:10A1D3005CF0EF2407F582E43EF583E090085DF040
:01A1E3002259
:07B23700539BF04397042232
:0BA7D800F0900876E0FEA3E0FF7D0893
:08A7E3009008A6EEF0A3EFF0D0
:10A7EB009008827411F0A37408F0E4FFEFC39D503E
:10A7FB002F9008A6E0FAA3E0F5828A83E493FE90FB
:10A80B000882E0FAA3E02FF582E43AF583EEF090AC
:10A81B0008A7E004F070069008A6E004F00F80CCC7
:01A82B00220A
:10A05E0090086FE0FEA3E0FF4E700A900881740234
:10A06E00F0539BF022D3EF9408EE94004025900815
:10A07E00817401F0900870E024F8F090086FE034DD
:10A08E00FF12A7D8900877E02408F0900876E03405
:10A09E0000801990086FE07004A3E06408900881B6
:10A0AE0070120412A7D8E490086FF0A3F0539BF03F
:10A0BE00439B08227402F0900876E0FEA3E0FF9026
:10A0CE00086FA3E0FD12A7E3539BF090086FA3E087
:03A0DE00429B2280
:10A1E4009008827411F0A3E4F0900882E0FEA3E0EA
:10A1F400FFF5828E83E0900860F08F828E83A3E067
:10A20400900861F0900882A3E0F5828E83A3A3E016
:10A21400900862F08F828E83A3A3A3E0900863F07A
:10A22400900882A3E02404F582E43EF583E09008DC
:10A2340064F0EF2405F582E43EF583E0900865F0D0
:10A24400900882A3E02406F582E43EF583E09008BA
:10A2540066F0EF2407F582E43EF583E0900867F0AA
:01A2640022D7
:1097A000900873E0FEA3E0FF4E700B900881F05329
:1097B0009EF043970422D3EF9408EE9400407C90EF
:1097C0000881740AF012A1E4900873E07004A3E029
:1097D00064417018900854F0A3F0900862E0F51C02
:1097E000E51C6401700EA3E0F51D8008900860E0A0
:1097F000FF123681900861E0FF123681900862E026
:10980000FF123681900863E0FF123681900864E011
:10981000FF123681900865E0FF123681900866E0FD
:10982000FF123681900867E0FF123681900874E0DD
:1098300024F8F0900873E034FFF022E4900881F0FF
:1098400012A1E4900860E0FF123681E4900873F002
:0F985000A3F0539EF043970475B50275B9022239
:1080A80090086FE0FCA3E0FD64414C707790088174
:1080B80004F0900870E024F8F090086FE034FFF0C6
:1080C8009008827411F0A37408F0900882E0FAA373
:1080D800E0FBF5828A837401F08B828A83A3F08B9C
:1080E800828A83A3A3F08B828A83A3A3A3F0EB24C1
:1080F80004F582E43AF5837401F0EB2405F582E493
:108108003AF583E4F0EB2406F582E43AF583E4F0EB
:10811800EB2407F582E43AF583E4F0539BF0439BA4
:1081280008D24A22D3ED9408EC94004023900881A9
:108138007401F0900870E024F8F090086FE034FFC4
:10814800F0900877E02408F0900876E03400803E4C
:1081580090086FE07004A3E06408703A9008810406
:10816800F0A37411F0A37408F0E4FFEFC39408744B
:108178008094805013900882E0FCA3E02FF582E4FD
:108188003CF583E4F00F80E3E490086FF0A3F0532C
:108198009BF0439B082290086FE07002A3E07013E5
:1081A8009008817402F0539BF0E490086FF0A3F0FC
:1081B800C24A229008817402F0A37411F0A37408D3
:1081C800F0E4FFEFC3940874809480501390088201
:1081D800E0FCA3E02FF582E43CF583E4F00F80E3B4
:1081E800539BF090086FA3E0429BE490086FF0A3C4
:0181F800F096
:0181F9002263
:10ACC6007837E664B07002F6227838E664B070022F
:10ACD600F6227839E664B07002F622783AE664B075
:10ACE6007002F622783BE664B07002F622783CE603
:06ACF60064B07001F622BB
:108EDC00305903028FCB7837E6704208E618F6E477
:108EEC0008F618E6700A7839E67837F6E47839F639
:108EFC007837E6700A783AE67837F6E4783AF67816
:108F0C0037E6700A783BE67837F6E4783BF6783744
:108F1C00E6700A783CE67837F6E4783CF67838E682
:108F2C00703308E618F6E408F618E6700A783AE6A4
:108F3C007838F6E4783AF67838E6700A783BE678D2
:108F4C0038F6E4783BF67838E6700A783CE6783800
:108F5C00F6E4783CF67839E6702408E618F6E4086E
:108F6C00F618E6700A783BE67839F6E4783BF67842
:108F7C0039E6700A783CE67839F6E4783CF6783ACB
:108F8C00E6701508E618F6E408F618E6700A783C60
:108F9C00E6783AF6E4783CF6783BE6700708E61893
:108FAC00F6E408F67F01EFC3940774809480500FA9
:0F8FBC0074362FF8E6FE742F2FF8A6060F80E705
:018FCB002283
:1091E8002038030292C6C238128EDC12ACC6900830
:1091F800827411F0A37420F0A240B3B059506A9061
:109208000847E0783646FF900882E0FCA3E0FDF5C9
:10921800828C83EFF08D828C83A3E4F008E68D8244
:109228008C83A3A3F008E68D828C83A3A3A3F00804
:10923800E6FFED2404F582E43CF583EFF008E6FF51
:10924800ED2405F582E43CF583EFF008E6FFED2414
:1092580006F582E43CF583EFF008E6FFED2407F518
:1092680082E43CF583EFF0804F900882E0FEA3E0B3
:10927800FFF5828E83E4F08F828E83A3F08F828E37
:1092880083A3A3F08F828E83A3A3A3F0EF2404F516
:1092980082E43EF583E4F0EF2405F582E43EF583AD
:1092A800E4F0EF2406F582E43EF583E4F0EF2407CA
:0F92B800F582E43EF583E4F0759C0843990422A7
:1087AE00303A5BC23A9008827411F0A37480F09054
:1087BE000882E0FCA3E0F5828C837406F07F01EF63
:1087CE00C39410748094805032A240B3B0595018A4
:1087DE0074622FF8E6FE900882E0FCA3E02FF5828B
:1087EE00E43CF583EEF08010900882E0FCA3E02FCD
:1087FE00F582E43CF583E4F00F80C40288BA303988
:10880E004AC239759D039008827411F0A37480F0EA
:10881E00900882E0FCA3E0FDF5828C837402F0A246
:10882E0040B3B059500D788AE68D828C83A3F01830
:10883E00E6800F900882E0FCA3E0FDF5828C83A316
:10884E00E4F08D828C83A3A3F08064305A64C25A04
:10885E009008827411F0A37480F0900882E0FEA359
:10886E00E0F5828E837406F07F01EFC3941074805E
:10887E0094805038A240B3B059501E74132FF58215
:10888E00E43408F583E0FE900882E0FCA3E02FF5C7
:10889E0082E43CF583EEF08010900882E0FCA3E0C9
:1088AE002FF582E43CF583E4F00F80BE759D1043F6
:0288BE009A041A
:0188C0002295
:0100190022C4
:105B71000006070809140B0A0D0E0F101112130C61
:105B810015010203040500000000000001010101EC
:105B910001010202020202020303030303030404DC
:105BA10004040404050505050505060606060606A2
:105BB1000707070707070808080808080909090966
:105BC10009090A0A0A0A0A0A0B0B0B0B0B0B0C0C2C
:105BD1000C0C0C0C0D0D0D0D0D0D0E0E0E0E0E0EF2
:105BE1000F0F0F0F0F0F10101010101011111111B6
:105BF100111112121212121213131313131314147C
:105C010014141414010204081020010204081020C5
:105C110001020408102001020408102001020408F6
:105C210010200102040810200102040810200102C2
:105C310004081020010204081020010204081020A9
:105C410001020408102001020408102001020408C6
:105C51001020010204081020010204081020010292
:105C61000408102001020408102001020408102079
:105C71000102040810200102040810200102040896
:105C810010202727272727272727272727272727C1
:105C9100272727272727272A2A2A2A2A2A2A2A2A78
:105CA1002A2A2A2A2A2A2A2A2A2A2A2A2D2D2D2D47
:105CB1002D2D2D2D2D2D2D2D2D2D2D2D2D2D2D2D13
:105CC1002D303030303030303030303030303030D6
:105CD10030303030303033333333333333333333A5
:105CE1003333333333333333333333363636363674
:105CF1003636363636363636363636363636363643
:105D01002626262626262626262626262626262632
:105D11002626262626292929292929292929292901
:105D2100292929292929292929292C2C2C2C2C2CD0
:105D31002C2C2C2C2C2C2C2C2C2C2C2C2C2C2C2F9F
:105D41002F2F2F2F2F2F2F2F2F2F2F2F2F2F2F2F62
:105D51002F2F2F2F3232323232323232323232322E
:105D610032323232323232323235353535353535FD
:105D710035353535353535353535353535352828EC
:105D81002828282828282828282828282828282892
:105D91002828282B2B2B2B2B2B2B2B2B2B2B2B2B5B
:105DA1002B2B2B2B2B2B2B2B2E2E2E2E2E2E2E2E2A
:105DB1002E2E2E2E2E2E2E2E2E2E2E2E2E313131F9
:105DC10031313131313131313131313131313131C2
:105DD1003131343434343434343434343434343488
:105DE1003434343434343437373737373737373757
:105DF10037373737373737373737373700152A3F90
:105E0100546901162B40556A02172C41566B031831
:105E11002D42576C04192E43586D051A2F44596EA3
:105E2100061B30455A6F071C31465B70081D32470F
:105E31005C71091E33485D720A1F34495E730B2081
:105E4100354A5F740C21364B60750D22374C6176F3
:105E51000E23384D62770F24394E637810253A4F5F
:105E6100647911263B50657A12273C51667B1328D1
:105E71003D52677C14293E53687DB5B6B7CDE2E942
:0C5E8100EA838A92942123242526272AF4
:06B23E00EF905B7193FF2D
:01B2440022E7
:06B24500EF905B8793FF10
:01B24B0022E0
:10A53000EEFD7C00E4FF12A580EF24FCFFE4340371
:10A54000FE9008ACE0FD75F002A424FEF582E5F073
:10A550003402F583EEF0A3EFF07F0112A580EF2423
:10A56000FCFFE43403FE9008ACE0FD75F002A42487
:10A57000FAF582E5F03403F583EEF0A3EFF07F0205
:10A5800075F07EEFA42483F582E5F0345CF583E575
:0CA59000822DF582E5833CF583E493FF07
:01A59C00229C
:06B24C00EF905C0593FF8A
:01B2520022D9
:0574E9009008ADEFF07A
:1074EE00305903027694900932E0FF7E00640170F9
:1074FE00079008AE74CA8018EF64024E70079008A9
:10750E00AE74CC800BEF64034E70099008AE74CE4F
:10751E00F0A3E4F09008ADE0FD75F003A4FF900831
:10752E00AFE02FFF9008AEE035F08F82F583E49345
:10753E0060397C00E4FF12A580EFFB7A00E516753A
:10754E00F0FFA4FFAEF07D051279BFEF75F004A435
:10755E002BFFEA35F0FE9008ADE075F002A424FE94
:10756E00F582E5F03402F583EE801F9008ADE0FD64
:10757E007C00E4FF12A5809008ADE075F002A42413
:10758E00FEF582E5F03402F583E4F0A3EFF0900807
:10759E00ADE0FD75F003A4FF9008AFE02FFF90085B
:1075AE00AEE035F0FE8F82F58374019360397C0076
:1075BE007F0112A580EFFB7A00E51675F0FFA4FFA0
:1075CE00AEF07D051279BFEF75F004A42BFFEA35FE
:1075DE00F0FE9008ADE075F002A424FAF582E5F015
:1075EE003403F583EE801F9008ADE0FD7C007F0133
:1075FE0012A5809008ADE075F002A424FAF582E59C
:10760E00F03403F583E4F0A3EFF09008ADE0FD75E0
:10761E00F003A4FF9008AFE02FFF9008AEE035F026
:10762E00FE8F82F58374029360397C007F0212A56F
:10763E0080EFFB7A00E51675F0FFA4FFAEF07D0536
:10764E001279BFEF75F004A42BFFEA35F0FE900817
:10765E00ADE075F002A424F6F582E5F03404F5836E
:10766E00EE801F9008ADE0FD7C007F0212A5809099
:10767E0008ADE075F002A424F6F582E5F03404F5C9
:06768E0083E4F0A3EFF01D
:0176940022D3
:050046009008ACEFF092
:10004B007F01300406900923E52DF09008ACE0FE0B
:10005B00641160030200E5303C02FF22900923E0AB
:10006B0030E02112A530EF24FCFFE43403FE9008AE
:10007B00ACE075F002A424F6F582E5F03404F583C8
:10008B00EE0206119008ACE0FD7C00E4FF12A580A7
:10009B009008ACE0FD75F002A424FEF582E5F03487
:1000AB0002F583E4F0A3EFF07F0112A5809008AC7A
:1000BB00E0FD75F002A424FAF582E5F03403F58334
:1000CB00E412A57A9008ACE075F002A424F6F58250
:1000DB00E5F03404F583E40206119008ACE0FE640D
:1000EB00126003020173303C02FF22900923E030BF
:1000FB00E12012A530EF24FCFFE43403FE9008ACA2
:10010B00E075F002A424F6F582E5F03404F583EEF5
:10011B0080539008ACE0FD7C00E4FF12A5809008B2
:10012B00ACE0FD75F002A424FEF582E5F03402F597
:10013B0083E4F0A3EFF07F0112A5809008ACE0FD03
:10014B0075F002A424FAF582E5F03403F583E4128A
:10015B00A57A9008ACE075F002A424F6F582E5F0E0
:10016B003404F583E40206119008ACE0FE641360DE
:10017B0003020201303C02FF22900923E030E2200F
:10018B0012A530EF24FCFFE43403FE9008ACE075BD
:10019B00F002A424F6F582E5F03404F583EE8053E7
:1001AB009008ACE0FD7C00E4FF12A5809008ACE069
:1001BB00FD75F002A424FEF582E5F03402F583E42C
:1001CB00F0A3EFF07F0112A5809008ACE0FD75F075
:1001DB0002A424FAF582E5F03403F583E412A57A40
:1001EB009008ACE075F002A424F6F582E5F0340437
:1001FB00F583E40206119008ACE0FE641460030280
:10020B00028B303C02FF22303F2012A530EF24FC42
:10021B00FFE43403FE9008ACE075F002A424F6F57D
:10022B0082E5F03404F583EE80539008ACE0FD7C5E
:10023B0000E4FF12A5809008ACE0FD75F002A42449
:10024B00FEF582E5F03402F583E4F0A3EFF07F01D5
:10025B0012A5809008ACE0FD75F002A424FAF5829B
:10026B00E5F03403F583E412A57A9008ACE075F061
:10027B0002A424F6F582E5F03404F583E4020611BA
:10028B009008ACE0FE642B600302031F30017690F4
:10029B000917E064AA606EEEFD7C007F0112A58059
:1002AB00EFFD900917E075F004A42DFFEC35F0126B
:1002BB00A565EFFD900917E075F004A42DFFEC3553
:1002CB00F0FE9008ACE0FD75F002A424F6F582E593
:1002DB00F03404F583EEF0A3EFF0E4FF12A580EF0A
:1002EB00FD900917E075F004A42DFFEC35F0FE909E
:1002FB0008ACE075F002A424FEF582E5F03402F5BB
:10030B0083EE02061130310302061B30280302066E
:10031B00327F01229008ACE0FE642C60030203B331
:10032B00300276900917E064AA606EEEFD7C007FC8
:10033B000112A580EFFD900917E075F004A42DFFC5
:10034B00EC35F012A565EFFD900917E075F004A4EC
:10035B002DFFEC35F0FE9008ACE0FD75F002A42407
:10036B00F6F582E5F03404F583EEF0A3EFF0E4FF4D
:10037B0012A580EFFD900917E075F004A42DFFEC9A
:10038B0035F0FE9008ACE075F002A424FEF582E592
:10039B00F03402F583EE02061130310302061B30F6
:1003AB0028030206327F01229008ACE0FE642D6028
:1003BB0003020447300376900917E064AA606EEEDF
:1003CB00FD7C007F0112A580EFFD900917E075F011
:1003DB0004A42DFFEC35F012A565EFFD900917E095
:1003EB0075F004A42DFFEC35F0FE9008ACE0FD7524
:1003FB00F002A424F6F582E5F03404F583EEF0A3C5
:10040B00EFF0E4FF12A580EFFD900917E075F00403
:10041B00A42DFFEC35F0FE9008ACE075F002A4249F
:10042B00FEF582E5F03402F583EE0206113031035E
:10043B0002061B3028030206327F01229008ACE033
:10044B00FE643460030204FC2000030204ED9009F7
:10045B0017E064AA70030204EDEEFD7C007F02122C
:10046B00A580EFFD900917E075F004A42DFFEC3586
:10047B00F0FE9008ACE0FD75F002A424F6F582E5E1
:10048B00F03404F583EEF0A3EFF07F0112A580EFBB
:10049B00FD900917E075F004A42DFFEC35F0FE90EC
:1004AB0008ACE0FD75F002A424FAF582E5F0340304
:1004BB00F583EEF0A3EFF0E4FF12A580EFFD9009BA
:1004CB0017E075F004A42DFFEC35F0FE9008ACE0BE
:1004DB0075F002A424FEF582E5F03402F583EE02FA
:1004EB00061130310302061B3028030206327F014E
:1004FB00229008ACE0FE646E60030205A0A22C7291
:10050B00214003020591EEFD7C007F0112A580EFD7
:10051B00FD90090FE075F004A42DFFEC35F0FE9073
:10052B0008ACE0FD75F002A424FAF582E5F0340383
:10053B00F583EEF0A3EFF0E4FF12A580EFFD900939
:10054B000FE075F004A42DFFEC35F0FE9008ACE045
:10055B00FD75F002A424FEF582E5F0340212A577B6
:10056B00EFFD90090FE075F004A42DFFEC35F0FEC4
:10057B009008ACE075F002A424F6F582E5F03404A3
:10058B00F583EE02061130310302061B30280302FD
:10059B0006327F01229008ACE0FE64726003020613
:1005AB004090091FE064AA6064EEFD7C007F01129D
:1005BB00A5809008ACE0FD75F002A424FAF582E565
:1005CB00F03403F583E4F0A3EFF0E4FF12A580EF22
:1005DB00FD90091FE075F004A42DFFEC35F0FE90A3
:1005EB0008ACE0FD75F002A424FEF582E5F03402C0
:1005FB0012A5779008ACE075F002A424F6F582E51D
:10060B00F03404F583E4F0A3EFF0E4FF223031146F
:10061B009008ACE0FFE515FD7C007BFF7A00123102
:10062B0008E4FF2230280B9008ACE0FF1274E9E4D9
:10063B00FF227F01229008ACE0FD7C00646D70040A
:10064B007E0180027E00ED646C4C70047D018002A3
:10065B007D00ED4EFE9008ACE0FD7C00646F7004F5
:10066B007B0180027B00EB4EFEED64704C70047DD1
:10067B000180027D00ED4EFE9008ACE0FD7C006435
:10068B007470047B0180027B00EB4EFEED64754CB5
:10069B0070047D0180027D00ED4EFE9008ACE0FD04
:1006AB007C00647B70047B0180027B00EB4EFEEDD3
:1006BB00647D4C70047D0180027D00ED4E6002E490
:0106CB00FF2F
:0106CC00220B
:01001A0022C3
:01003A0022A3
:0FB1F20074FD2FF582745D3EF583E493F52E22F4
:0D50F20074FD2FF582745D3EF583E493FF9D
:0150FF00228E
:02B19800AD0701
:10B19A00AFCCEFFEACCDECFBEB2DFFE43EFE02A8FC
:01B1AA002C78
:10A66D00E49008A5F09008A5E0FF7E00C3947E74E9
:10A67D008094805048EF6411603BEF64126036EFB8
:10A68D0064136031EF6414602CEF646C6027EF6429
:10A69D006D6022EF646F601DEF64706018EF64747D
:10A6AD006013EF6475600EEF647B6009EF647D608D
:0DA6BD0004E0123BEA9008A5E004F080A83C
:01A6CA00226D
:10985F00E4FEEEFD7C00C3947E748094804003028E
:10986F009912ED6411700302990EED6412700302E8
:10987F00990EED6413700302990EED6414700302D8
:10988F00990EED646C6078ED646D6073ED646F60DC
:10989F006EED64706069ED64746064ED6475605FB3
:1098AF00ED647B605AED647D6055E4FF12A580EF97
:1098BF00FD75F002EEA424FEF582E5F03402F58387
:1098CF00ECF0A3EDF0EEFD7F0112A580EFFD75F03A
:1098DF0002EEA424FAF582E5F03403F583ECF0A34D
:1098EF00EDF0EEFD7F0212A580EFFD75F002EEA404
:1098FF0024F6F582E5F03404F583ECF0A3EDF00ED9
:03990F000298615A
:019912002232
:103108009008ADEFF09008B0EAF0A3EBF09008AEAD
:10311800ECF0A3EDF064014C70689008ADE0FD7C24
:1031280000E4FF12A580EFFB7A00AF167E0090083E
:10313800B0E0FCA3E0FD1279AD7C007D05127A14A5
:10314800EF7802C333CE33CED8F92BFFEE3AFE9098
:1031580008ADE0FD75F002A424FEF582E5F0340226
:10316800F583EEF0A3EFF07C007F0112A5809008B4
:10317800ADE0FD75F002A424FAF582E5F03403020F
:1031880032A69008AEE07004A3E064026003023245
:10319800329008ADE0FD7C00E4FF12A580EFFB7AD9
:1031A80000AF167E009008B0E0FCA3E0FD1279ADF8
:1031B8007C007D05127A14EF7802C333CE33CED863
:1031C800F92BFFEE3AFE9008ADE0FD75F002A4245D
:1031D800FEF582E5F03402F583EEF0A3EFF07C0013
:1031E8007F0112A580EFFB7A00AF167E009008B031
:1031F800E0FCA3E0FD1279AD7C007D05127A14EFA6
:103208007802C333CE33CED8F92BFFEE3AFE9008BE
:10321800ADE0FD75F002A424FAF582E5F03403F57B
:1032280083EEF0A3EFF07C00807B9008AEE07004A2
:10323800A3E0640360030232C59008ADE0FD7C00A2
:103248007F0112A580EFFB7A00AF167E009008B0D0
:10325800E0FCA3E0FD1279AD7C007D05127A14EF45
:103268007802C333CE33CED8F92BFFEE3AFE90085E
:10327800ADE0FD75F002A424FAF582E5F03403F51B
:1032880083EEF0A3EFF07C00E4FF12A5809008AD78
:10329800E0FD75F002A424FEF582E5F03402F58322
:1032A800E4F0A3EFF07F0212A5809008ADE075F07E
:1032B80002A424F6F582E5F034040236799008AECB
:1032C800E07004A3E0640460030233589008ADE0A2
:1032D800FD7C007F0212A580EFFB7A00AF167E000E
:1032E8009008B0E0FCA3E0FD1279AD7C007D0512EA
:1032F8007A14EF7802C333CE33CED8F92BFFEE3AE7
:10330800FE9008ADE0FD75F002A424F6F582E5F024
:103318003404F583EEF0A3EFF07C00E4FF12A580FF
:103328009008ADE0FD75F002A424FEF582E5F034C6
:1033380002F583E4F0A3EFF07F0112A5809008ADB9
:10334800E075F002A424FAF582E5F0340302367938
:103358009008AEE07004A3E06405600302341690A0
:1033680008ADE0FD7C007F0112A580EFFB7A00AF7D
:10337800167E009008B0E0FCA3E0FD1279AD7C0059
:103388007D05127A14EF7802C333CE33CED8F92BE9
:10339800FFEE3AFE9008ADE0FD75F002A424FAF5C0
:1033A80082E5F03403F583EEF0A3EFF07C007F02B2
:1033B80012A580EFFB7A00AF167E009008B0E0FC03
:1033C800A3E0FD1279AD7C007D05127A14EF780236
:1033D800C333CE33CED8F92BFFEE3AFE9008ADE0DA
:1033E800FD75F002A424F6F582E5F03404F583EEC9
:1033F800F0A3EFF07C00E4FF12A5809008ADE07523
:10340800F002A424FEF582E5F03402023679900831
:10341800AEE07004A3E0640660030234D49008AD03
:10342800E0FD7C007F0212A580EFFB7A00AF167EDC
:10343800009008B0E0FCA3E0FD1279AD7C007D05AA
:10344800127A14EF7802C333CE33CED8F92BFFEEBD
:103458003AFE9008ADE0FD75F002A424F6F582E589
:10346800F03404F583EEF0A3EFF07C00E4FF12A53E
:1034780080EFFB7A00AF167E009008B0E0FCA3E076
:10348800FD1279AD7C007D05127A14EF7802C33302
:10349800CE33CED8F92BFFEE3AFE9008ADE0FD759D
:1034A800F002A424FEF582E5F03402F583EEF0A3E1
:1034B800EFF07C007F0112A5809008ADE075F00266
:1034C800A424FAF582E5F034030236799008AEE0D8
:1034D8007004A3E0640760030235BE9008ADE0FD08
:1034E8007C007F0212A580EFFB7A00AF167E009069
:1034F80008B0E0FCA3E0FD1279AD7C007D05127AEE
:1035080014EF7802C333CE33CED8F92BFFEE3AFE50
:103518009008ADE0FD75F002A424F6F582E5F034DC
:1035280004F583EEF0A3EFF07C00E4FF12A580EF32
:10353800FB7A00AF167E009008B0E0FCA3E0FD1215
:1035480079AD7C007D05127A14EF7802C333CE334F
:10355800CED8F92BFFEE3AFE9008ADE0FD75F002EB
:10356800A424FEF582E5F03402F583EEF0A3EFF033
:103578007C007F0112A580EFFB7A00AF167E0090D9
:1035880008B0E0FCA3E0FD1279AD7C007D05127A5D
:1035980014EF7802C333CE33CED8F92BFFEE3AFEC0
:1035A8009008ADE075F002A424FAF582E5F0340342
:1035B800F583EE02367C9008AEE07004A3E0640860
:1035C80060030236809008ADE0FD7C007F0212A502
:1035D80080EFFB7A00AF167E009008B0E0FCA3E015
:1035E800FD1279AD7C007D05127A14EF7802C333A1
:1035F800CE33CED8F92BFFEE3AFE9008ADE0FD753C
:10360800F002A424F6F582E5F03404F583EEF0A385
:10361800EFF07C00E4FF12A580EFFB7A00AF167E86
:10362800009008B0E0FCA3E0FD1279AD7C007D05B8
:10363800127A14EF7802C333CE33CED8F92BFFEECB
:103648003AFE9008ADE0FD75F002A424FEF582E58F
:10365800F03402F583EEF0A3EFF07C007F0112A5B1
:10366800809008ADE075F002A424FAF582E5F03404
:0936780003F583E4F0A3EFF02256
:0E86930090088DEEF0A3EFF0A3ECF0A3EDF055
:1086A100A3EFF0ED4C702390088DE0FCA3E0FDC337
:1086B100EC6480948050030287ABED9415EC6480E8
:1086C100948040030287AB0287A890088FE0700472
:1086D100A3E06401702590088DE0FEA3E0FFC39440
:1086E1002AEE6480948040030287ABEF9414EE6419
:1086F10080948050030287AB0287A890088FE070B6
:1087010004A3E06402702490088DE0FEA3E0FFC39F
:10871100943FEE6480948040030287ABEF9429EE8E
:108721006480948050030287AB807C90088FE07056
:1087310004A3E06403701E90088DE0FEA3E0FFC374
:108741009454EE648094805061EF943EEE64809482
:10875100804057805290088FE07004A3E064047059
:108761001E90088DE0FEA3E0FFC39469EE6480943F
:10877100805037EF9453EE64809480402D80289090
:10878100088FE07004A3E06405701F90088DE0FE7F
:10879100A3E0FFC3947DEE64809480500DEF946854
:0D87A100EE648094804003123BEA02001A4F
:10AC5800EF905E7B93FF788AF67E00D3942A748007
:10AC68009480500418760222D3EF9494EE64809472
:10AC7800805010C3EF9483EE6480948040057889F7
:08AC8800760122E47889F6222E
:10AE250090FF817412F0A3F0A3F0A3F0A3F0A3F0B8
:10AE3500A3F0A3F0A3F0A3F0A3F0A3F0A3F0A3F075
:0BAE4500A3F0A3F0A3F090FF80F02228
:10AD300090FF8074CAF0A37408F0A3F0A3F0A3F00E
:10AD4000A3F0A3748AF0A37408F0A3F0A3F0A3F017
:10AD5000A3F0A3748AF0A37408F0A3F0A3F0A3F007
:03AD6000A3F0223B
:10616E00E511FD7C0025E0FBEC33FA74FA2BF58289
:10617E0074033AF583E090FFF4F074FA2BF5827411
:10618E00033AF583A3E090FFDCF0ED25E0FDEC3360
:10619E00FC74FE2DF58274023CF583E090FFF5F061
:1061AE0074FE2DF58274023CF583A3E090FFDDF0C2
:1061BE00E511FD7C0025E0FBEC33FA74F62BF5823D
:1061CE0074043AF583E090FFF6F074F62BF58274C2
:1061DE00043AF583A3E090FFDEF0ED25E0FDEC330D
:1061EE00FC74242DF58274043CF583E090FFF7F0E7
:1061FE0074242DF58274043CF583A3E090FFDFF048
:10620E00E511FD7C0025E0FBEC33FA74282BF582BA
:10621E0074033AF583E090FFF8F074282BF582743E
:10622E00033AF583A3E090FFE0F0ED25E0FDEC33BB
:10623E00FC74202DF58274053CF583E090FFF9F097
:10624E0074202DF58274053CF583A3E090FFE1F0F8
:10625E00E511FD7C0025E0FBEC33FA744E2BF58244
:10626E0074043AF583E090FFEEF0744E2BF58274D1
:10627E00043AF583A3E090FFD6F0ED25E0FDEC3374
:10628E00FC74522DF58274033CF583E090FFEFF021
:10629E0074522DF58274033CF583A3E090FFD7F082
:1062AE00E511FD7C0025E0FBEC33FA744A2BF582F8
:1062BE0074053AF583E090FFF0F0744A2BF5827482
:1062CE00053AF583A3E090FFD8F0ED25E0FDEC3321
:1062DE00FC74782DF58274043CF583E090FFF1F0A8
:1062EE0074782DF58274043CF583A3E090FFD9F009
:1062FE00E511FD7C0025E0FBEC33FA747C2BF58276
:10630E0074033AF583E090FFF2F0747C2BF58274FF
:10631E00033AF583A3E090FFDAF0ED25E0FDEC33D0
:10632E00FC74742DF58274053CF583E090FFF3F058
:10633E0074742DF58274053CF583A3E090FFDBF0B9
:10634E00E511FD7C0025E0FBEC33FA74A22BF582FF
:10635E0074043AF583E090FFEBF074A22BF582748F
:10636E00043AF583A3E090FFD3F0ED25E0FDEC3386
:10637E00FC74A62DF58274033CF583E090FFECF0DF
:10638E0074A62DF58274033CF583A3E090FFD4F040
:10639E00E511FD7C0025E0FBEC33FA749E2BF582B3
:1063AE0074053AF583E090FFEDF0749E2BF5827440
:1063BE00053AF583A3E090FFD5F0ED25E0FDEC3333
:1063CE00FC74CC2DF58274043CF583E090FFE8F06C
:1063DE0074CC2DF58274043CF583A3E090FFD0F0CD
:1063EE00E511FD7C0025E0FBEC33FA74D02BF58231
:1063FE0074033AF583E090FFE9F074D02BF58274C4
:10640E00033AF583A3E090FFD1F0ED25E0FDEC33E8
:10641E00FC74C82DF58274053CF583E090FFEAF01C
:10642E0074C82DF58274053CF583A3E090FFD2F07D
:01643E00223B
:10643F00E511FD7C0025E0FBEC33FA74FF2BF582B0
:10644F0074003AF583E090FFF4F074FF2BF582743B
:10645F00003AF583A3E090FFDCF0ED25E0FDEC338F
:10646F00FC74032DF58274003CF583E090FFF5F08A
:10647F0074032DF58274003CF583A3E090FFDDF0EB
:10648F00E511FD7C0025E0FBEC33FA74FB2BF58264
:10649F0074013AF583E090FFF6F074FB2BF58274EC
:1064AF00013AF583A3E090FFDEF0ED25E0FDEC333C
:1064BF00FC742D2DF58274003CF583E090FFF7F00E
:1064CF00742D2DF58274003CF583A3E090FFDFF06F
:1064DF00E511FD7C0025E0FBEC33FA74252BF582EA
:1064EF0074023AF583E090FFF8F074252BF582746F
:1064FF00023AF583A3E090FFE0F0ED25E0FDEC33E9
:10650F00FC74292DF58274013CF583E090FFF9F0BE
:10651F0074292DF58274013CF583A3E090FFE1F01F
:10652F00E511FD7C0025E0FBEC33FA74532BF5826B
:10653F0074013AF583E090FFEEF074532BF58274FB
:10654F00013AF583A3E090FFD6F0ED25E0FDEC33A3
:10655F00FC74572DF58274003CF583E090FFEFF04B
:10656F0074572DF58274003CF583A3E090FFD7F0AC
:10657F00E511FD7C0025E0FBEC33FA744F2BF5821F
:10658F0074023AF583E090FFF0F0744F2BF58274AC
:10659F00023AF583A3E090FFD8F0ED25E0FDEC3350
:1065AF00FC747D2DF58274013CF583E090FFF1F0D2
:1065BF00747D2DF58274013CF583A3E090FFD9F033
:1065CF00E511FD7C0025E0FBEC33FA74812BF5829D
:1065DF0074003AF583E090FFF2F074812BF582742A
:1065EF00003AF583A3E090FFDAF0ED25E0FDEC3300
:1065FF00FC74792DF58274023CF583E090FFF3F083
:10660F0074792DF58274023CF583A3E090FFDBF0E3
:10661F00E511FD7C0025E0FBEC33FA74A72BF58226
:10662F0074013AF583E090FFEBF074A72BF58274B9
:10663F00013AF583A3E090FFD3F0ED25E0FDEC33B5
:10664F00FC74AB2DF58274003CF583E090FFECF009
:10665F0074AB2DF58274003CF583A3E090FFD4F06A
:10666F00E511FD7C0025E0FBEC33FA74A32BF582DA
:10667F0074023AF583E090FFEDF074A32BF582746A
:10668F00023AF583A3E090FFD5F0ED25E0FDEC3362
:10669F00FC74D12DF58274013CF583E090FFE8F096
:1066AF0074D12DF58274013CF583A3E090FFD0F0F7
:1066BF00E511FD7C0025E0FBEC33FA74D52BF58258
:1066CF0074003AF583E090FFE9F074D52BF58274EE
:1066DF00003AF583A3E090FFD1F0ED25E0FDEC3318
:1066EF00FC74CD2DF58274023CF583E090FFEAF047
:1066FF0074CD2DF58274023CF583A3E090FFD2F0A8
:01670F002267
:10961A0090FFF4E4F090FFDC7426F090FFF5E4F09C
:10962A0090FFDD7427F090FFF6E4F090FFDE7428D7
:10963A00F090FFF7E4F090FFDF7429F090FFF8E470
:10964A00F090FFE0742AF090FFF9E4F090FFE174E3
:10965A002BF090FFEEE4F090FFD6742CF090FFEF21
:10966A00E4F090FFD7742DF090FFF0E4F090FFD86B
:10967A00742EF090FFF1E4F090FFD9742FF090FF70
:10968A00F2E4F090FFDA7430F090FFF3E4F090FF28
:10969A00DB7431F090FFEBE4F090FFD37432F0907A
:1096AA00FFECE4F090FFD47433F090FFEDE4F09017
:1096BA00FFD57434F090FFE8E4F090FFD07435F0F1
:1096CA0090FFE9E4F090FFD17436F090FFEAE4F0FD
:0796DA0090FFD27437F0226B
:1089D20012AE2575C0FF43888743B06D43F810433C
:1089E20080E0E511B415004003028A869089F5F80B
:1089F200282873028A34028A38028A3C028A400298
:108A02008A44028A48028A4C028A50028A54028AA2
:108A120058028A5C028A60028A64028A68028A6C4C
:108A2200028A70028A74028A78028A7C028A80022E
:108A32008A84C2C0804EC2C1804AC2C28046C2C3BA
:108A42008042C2C4803EC2C5803AC2C68036C2C716
:108A52008032C288802EC289802AC28A8026C28F32
:108A62008022C2B0801EC2B2801AC2B38016C2B5C2
:108A72008012C2B6800EC2FC800AC2858006C286FF
:108A82008002C287E58825E05430FFE5F8540F4F95
:108A920044C0F990FF80E054DFF030150512961AB9
:108AA200800B30520512643F800312616EE5882507
:108AB200E05430FFE5F8540F4F44C0FFB50109F40C
:108AC200FF744D2511F8A6070511D3E5119415740D
:0D8AD2008094804005E4F511D23E02AD30E5
:10954B0015161718191A1B1C1D1E1F202122232448
:10955B0025262728293E6867666564636261605F1C
:10956B005E5D5C5B5A5958575655542A2B2B2C2D44
:10957B002E2F30313233347D7D0102030405060773
:10958B0008090A0B0C0D0E0F10111213142853524D
:10959B0051504F4E4D4C4B4A494847464544434228
:1095AB0041403F15161718191A1B1C1D1E1F7D7DD8
:1095BB007D2A2B2C2D2E2F30313233343536373844
:1095CB00393A3B3C3D3E7D7C7B7A79787776757476
:1095DB00737271706F6E6D6C6B6A693F4041424381
:1095EB0044454647471D1E334746311D1E334746EC
:1095FB00311D1E334746311D1E33474631327D7DAB
:0F960B007D7D7D081D31465B710A2035495D72FA
:10832B00201C03028450AF14304D06EF75F003A4EC
:10833B00FF900930E004F0E0D39F5003028450E437
:10834B00F0304C7A900911E0FEA3E0244BF58274D7
:10835B00953EF583E493FF900884F0123BEA900975
:10836B0011E0FEA3E02482F58274953EF583E4933D
:10837B00FF900884F0123BEA900911E0FEA3E02481
:10838B00B9F58274953EF583E493FF900884F0125F
:10839B003BEA12001A900912E004F07006900911E2
:1083AB00E004F0D3900912E09437900911E09400A7
:1083BB005003028450E4F0A3F0D24DC24C22304D56
:1083CB004D900911E0FEA3E024F0F58274953EF583
:1083DB0083E493FF900884F0123BEA900912E004C7
:1083EB00F07006900911E004F0D3900912E0941E8E
:1083FB00900911E09400404DE4F0A3F0C24DC24C43
:10840B00D24E9008E87432F0E49008F7F022304E28
:10841B00349008F7E004F0E0FFD3941B7480948051
:10842B004013E4F09008E8F0900911F0A3F0C24D6E
:10843B00D24CC24E229008E8E09008ECF09008ED88
:05844B00EFF0125108E2
:018450002209
:10A99E00A2287231504190092FE064AA700730311D
:10A9AE0004F012A66D7F111200467F121200467F30
:10A9BE00131200467F141200467F2B1200467F2C86
:10A9CE001200467F2D1200467F341200467F6E1213
:07A9DE0000467F72120046E3
:01A9E500224F
:10A2E60000000000000000CA7FC800C78ACB7FC9F3
:10A2F60000008CCC7F000000880000000000890070
:10A30600000000A087004800000082004A4D0000BF
:10A3160081004B4E000083000000000080007F009B
:10A326000000840000000000860000000000850098
:10A3360000000000CDCE000000C6C1000000C3C46E
:10A34600C200000000C50000000000000000000080
:0EA356000000000000000000000000000000F9
:10B11E00E4FFEFC3940774809480500974362FF8BF
:05B12E00E4F60F80EDC6
:01B1330022F9
:10001E00E4FFEFC3941074809480500974622FF83B
:0B002E00E4F60F80EDE47889F608F698
:0100390022A4
:0CB20100A8077401088002C333D8FCFFCA
:01B20D00221E
:10ACFC00E4F50E7E017D01EDC394077480948050C1
:10AD0C001774362DF9E7B50708EE4209750EFF806A
:10AD1C0007EE25E0FE0D80DF303408E50EF460030D
:03AD2C00750EAAF7
:01AD2F002201
:10B051007E017D01EDC39407748094805014743691
:10B061002DF8E67006A607EE420922EE25E0FE0D58
:02B0710080E27B
:01B0730022BA
:10A95500E50875F004A4FFAEF0E42FF58274C63E59
:10A96500F583E493900890F074012FF58274C63E48
:10A97500F583E493900891F074022FF58274C63E36
:10A98500F583E493900892F074032FF58274C63E24
:08A99500F583E493900893F0B0
:01A99D002297
:1026BD00AF087E001250F290088BEFF0E50875F030
:1026CD0004A4FF900894E5F0F0A3EFF03037030277
:1026DD00275C900894E0FEA3E0FFE42FF58274C61A
:1026ED003EF583E493900890F074012FF58274C643
:1026FD003EF583E493900891F0900894E0FEA3E0FA
:10270D00FF2402F58274C63EF583E493900892F09F
:10271D0074032FF58274C63EF583E493900893F00D
:10272D0090088BE06411700302286290088BE064BE
:10273D0012700302286690088BE064137003022860
:10274D006B90088BE064146003022A6402286EE526
:10275D000890A2E693900892F0D394007480948030
:10276D005003022A169008907480F0E4900893F0BC
:10277D00900891F0A3E0127AF0286A8028628128EF
:10278D005282286683286E84287685287286284290
:10279D008728228828328928028A28128C27DBA0D4
:1027AD0028ACC1295BC229BBC329D0C429E5C529E1
:1027BD00F9C6287EC7288CC8289CC92912CA292980
:1027CD00CB2940CC28ECCD28CBCE00002A64305943
:1027DD0003022A64305103022A64050DD3E50D94DA
:1027ED00FA748094805003022A64E4F50D129E3928
:1027FD00D23D022A642036047F0A806F90089274BD
:10280D003AF0022A642036047F0C805F900892749F
:10281D003BF0022A642036047F08804F90089274A2
:10282D003CF0022A642036047F09803F90089274A0
:10283D003DF0022A642036047F07802F90089274A1
:10284D003EF0022A642036047F02801F90089274A5
:10285D003FF0022A647F0180127F03800EE4FF8027
:10286D000A7F0480067F0680027F0512AC58022A7B
:10287D00647873E620E503022A64B23F022A647885
:10288D0073E620E303022A64C236D23C022A64783E
:10289D0074E620E303022A64D236D23C022A64781D
:1028AD0081E620E003022A6490091EE004F0E0D3E3
:1028BD0094157480948040627401F00229557880DB
:1028CD00E620E103022A64900777E004F0E0D39458
:1028DD0003748094804002E4F012A265022A6478A9
:1028ED0080E620E003022A64202803022A6420598E
:1028FD000AD25912985FD23C022A64C259C23C12C4
:10290D007B280229B57873E620E103022A64900939
:10291D001E7413F09009327401F0802C7874E62047
:10292D00E103022A6490091E7413F09009327402B7
:10293D00F080157875E620E103022A6490091E7473
:10294D0013F09009327403F0128451022A647882D4
:10295D00E620E003022A64302803022A64E515709C
:10296D00037515070515D3E51594087480948040FB
:10297D000375150190092F74AAF0C21912985F20E2
:10298D002418202615201C12201D0F201E0C201F80
:10299D000920170620180312A66D121108302808F9
:1029AD00900932E0FF120D4C12A60A022A647881BA
:1029BD00E620E403022A6490092F74AAF012AF7284
:1029CD00022A647881E620E503022A6490092F74B7
:1029DD00AAF012AFE4022A647882E630E579E514B4
:1029ED0060021514E514706FD23C806B7880E63070
:1029FD00E565C3E51494047480948050020514E5D4
:102A0D001464047052D23C804E900894E0FEA3E012
:102A1D00FFE42FF58274C63EF583E493900890F0A1
:102A2D0074012FF58274C63EF583E493900891F0FE
:102A3D00900894E0FEA3E0FF2402F58274C63EF5F3
:102A4D0083E493900892F074032FF58274C63EF5DB
:102A5D0083E493900893F0900890E0FB7A006480F3
:102A6D00701B900892E0FF54806003022CFD12ACA5
:102A7D00FCE50E6003022CFDE0FF02B051EB4A6055
:102A8D0003022BE430362A900891E0FF7E006408A3
:102A9D0070057404F0801AEF64044E70089008916C
:102AAD007408F0800CEF64404E70069008917480AD
:102ABD00F0303F0C90088BE064737004900892F036
:102ACD00900891E0783646F6303F07203604E654FC
:102ADD0077F6900892E0FF600C12ACFCE50E7005E5
:102AED00E0FF12B051900893E0FF600C12ACFCE5D2
:102AFD000E7005E0FF12B051E50E64AA6003022CC2
:102B0D00FD300472900892E0603564B06031E0FDF4
:102B1D0024FCFFE434FFFEEF7803CEC313CE13D8AD
:102B2D00F9900889F0ED24FC5407FFA3F090088973
:102B3D00E02463F8C000F912B201E74FD000F6901F
:102B4D000893E07003022CFD64B07003022CFDE0CD
:102B5D00FD24FCFFE434FFFEEF7803CEC313CE1348
:102B6D00D8F9900889F0ED24FC5407FFA3F09008E4
:102B7D0089E024638054900892E0602764B060235C
:102B8D00E0FF131313541F900889F0EF5407FFA3B0
:102B9D00F0900889E02464F8C000F912B201E74F03
:102BAD00D000F6900893E07003022CFD64B0700322
:102BBD00022CFDE0FF131313541F900889F0EF54FE
:102BCD0007FFA3F0900889E02464F8C000F912B261
:102BDD0001E74FD000F622900890E0FF7E006401DF
:102BED00700C900892E07889F6A3E008F622EF6465
:102BFD00024E6003022CFD900892E0640470669012
:102C0D00088C127AB30000000190088CE0FCA3E060
:102C1D00FDA3E0FEA3E0FF900891E0F9F8127A948D
:102C2D0090088C127AA790080FE0FCA3E0FDA3E0BA
:102C3D00FEA3E0FF90088CE0F8A3E0F9A3E0FAA36F
:102C4D00E0FBEF4BFFEE4AFEED49FDEC48FC900832
:102C5D000F127AA7900891E02438F582E43408F534
:102C6D00837401F022900892E064016003022CFD50
:102C7D0090088C127AB30000000190088CE0FCA340
:102C8D00E0FDA3E0FEA3E0FF900891E0F9F8127AD1
:102C9D009490088C127AA7AF0812B24574722FF86F
:102CAD00E6FEC006AF0812B24CD0E05F604290085D
:102CBD000FE0FCA3E0FDA3E0FEA3E0FF90088CE095
:102CCD00F8A3E0F9A3E0FAA3E0FBEF4BFFEE4AFE19
:102CDD00ED49FDEC48FC90080F127AA7900893E09F
:102CED00FF900891E02438F582E43408F583EFF085
:012CFD0022B4
:106E9D00E4FFF508C2377856E630E502D237E490C4
:106EAD000884F0900884E0FEC3941574809480509B
:106EBD0010744D2EF8E660010F900884E004F08008
:106ECD00E2E4900885F0900884F0900884E0C39483
:106EDD0015748094805033E0FE24F8F582E4340874
:106EED00F583E0FD744D2EF8E6FE6D601590088477
:106EFD00E024F8F582E43408F583EEF0900885740B
:106F0D0001F0900884E004F080C0900885E06401F1
:106F1D0070030270D1EF6017E4F50AF50BF50FF56C
:106F2D0010303705F50C026FEE750C6E026FEE1218
:106F3D00B11E12001EE4900884F0900884E0FFC397
:106F4D00941574809480500B74722FF8763FE00482
:106F5D00F080E7E50C6002150CC23490090DE0FFDE
:106F6D007E006401700690088704804AEF64024E2B
:106F7D00700C9008877402F0A37458F0803DEF6494
:106F8D00034E700C9008877404F0A374B0F0802B3E
:106F9D00EF64044E700B9008877407F0A304F08023
:106FAD001AEF64054E700A74FF900887F0A3F08005
:106FBD000A9008877401F0A3742CF0C3900888E040
:106FCD009510900887E0950F40030270D1E4F50FFE
:106FDD00F510200403D23B222004030270D1D249C4
:106FED0022E4F50912001EE47836F6900885F0903B
:106FFD000885E0C3941574809480505BA37401F0F0
:10700D00E4900884F0900884E0C394067480948022
:10701D00503DA3E0244DF8A3E05660141226BD1296
:10702D0092C7900885E02472F8A3E0F456F6800E1E
:10703D00900885E02472F8A3E046F612A9550508DC
:10704D00900886E025E0F0900884E004F080B6908A
:10705D000885E004F0809830041D7837E6602F082D
:10706D00E6602B08E6602708E6602308E6601F0847
:10707D00E6601BD23480177837E6601208E6600EA2
:10708D0008E6600A08E6600608E66002D234E50903
:10709D0020E004E47837F6E50920E104E47838F6D9
:1070AD00E50920E204E47839F6E50920E304E47803
:1070BD003AF6E50920E404E4783BF6E50920E50419
:0470CD00E4783CF631
:0170D100229C
:10A59D00E4FFEFC39407748094805018742F2FF943
:10A5AD0074362FF8E6FE676008D238742F2FF8A6A0
:10A5BD00060F80DEE4FFEFC3941074809480501872
:10A5CD00743D2FF974622FF8E6FE676008D23A7475
:10A5DD003D2FF8A6060F80DEE4FFEFC394027480D2
:10A5ED009480501874872FF974892FF8E6FE6760F0
:0CA5FD0008D23974872FF8A6060F80DE04
:01A60900222E
:10ADC600129E39126C3BC23690091E7406F0900929
:10ADD600327401F0751508C241C240C23F751605AE
:10ADE60075140290090DF012B20E128451C23D2262
:107F5400203D030280A7900912E004F07006900906
:107F640011E004F0900911E0FEA3E0FFC39464EE75
:107F740094005059E4900884F0900884E0C3947EFF
:107F84007480948040030280A7E0FD75F002A4246D
:107F9400FEF582E5F03402F5837404F0A3E4F07591
:107FA400F002EDA424FAF582E5F03403F583E4F05D
:107FB400A3F075F002EDA424F6F582E5F03404F59F
:107FC40083E4F0A3F0900884E004F080ACEF6464F0
:107FD4004E7058900884F0900884E0C3947E7480B6
:107FE400948040030280A7E0FF75F002A424FAF510
:107FF40082E5F03403F5837404F0A3E4F075F00231
:10800400EFA424FEF582E5F03402F583E4F0A3F056
:1080140075F002EFA424F6F582E5F03404F583E468
:10802400F0A3F0900884E004F080AC900911E0FE25
:10803400A3E0FF64C84E7055900884F0900884E073
:10804400C3947E74809480505AE0FD75F002A42499
:10805400F6F582E5F03404F5837404F0A3E4F075D6
:10806400F002EDA424FAF582E5F03403F583E4F09C
:10807400A3F075F002EDA424FEF582E5F03402F5D8
:1080840083E4F0A3F0900884E004F080AFD3EF948D
:108094002CEE9401400D9009117401F0A37436F094
:0380A40012ADC654
:0180A70022B6
:109E3900E4FFEFC3947E74809480502774F02FF56B
:109E490082E43406F583E4F074722FF582E4340673
:109E5900F583E4F074F42FF582E43405F583E4F036
:109E69000F80CFC21BC231C21CC225C224C21DC26F
:109E790016C22BC230C22AC222C226C218C217C2B7
:109E89001FC228C233C229C211C21012985FC2234D
:109E9900C213C212E4900911F0A3F0900930F090B6
:109EA900092F74AAF0E4900931F0C259C21ED24CAC
:0C9EB900C227C24FC24EC24DC214D24C90
:019EC500227A
:10845100129E3990091EE06401700A90092F74AAD6
:10846100F0D231800A90091EE064027008D21B121A
:10847100A66D02857190091EE064037005D2250284
:10848100856290091EE0FF7E0064047005D224021B
:108491008571EF64054E7005D226028571EF640681
:1084A1004E7005D23302856290091EE0FF7E0064A2
:1084B100077005D222028571EF64084E7005D21053
:1084C10002856290091EE0FF7E0064097005D22AD0
:1084D100028571EF640A4E7005D21102856290091E
:1084E1001EE0FF7E00640B7005D22B028571EF64E4
:1084F1000C4E7004D213806990091EE0FF7E006467
:108501000D7004D21C8069EF640E4E7004D21D8080
:108511005FEF640F4E7004D21E8055EF64104E70F1
:1085210004D21F804BEF64114E7004D2178041EFCB
:1085310064124E7004D2188037EF64134E700CD25F
:1085410028900932E0FF120D4C802590091EE0644D
:10855100147004D212800A90091EE064157007D2CB
:1085610014121108800A90091EE0641E7002D227BD
:0385710002A60A55
:108CED00784DE630E31D30321CC232200417900956
:108CFD0023E030E10554FDF0800B900923E04402A0
:108D0D00F08002D232203703028DEA7856E630E247
:108D1D001630E313301A12C21A90091E7401F07541
:108D2D0015071284518002D21A784FE65404FF18A9
:108D3D00E654044FFF7850E654044FFF7857E6543D
:108D4D00044FFF7852E654044F7003028DE3202F39
:108D5D0003028DEA900920E004F0E0D3949674802C
:108D6D0094804037E4F0C22FA202720172037200A8
:108D7D00506B784EE630E2047F02801C784FE6306F
:108D8D00E2047F0380127850E630E2047F0480080D
:108D9D007857E630E2477F0102A9E6900920E064AA
:108DAD0002703AA2027201720372005030784EE6E0
:108DBD0030E2047F02801C784FE630E2047F0380AE
:108DCD00127850E630E2047F0480087857E630E2EE
:0E8DDD000C7F01029476D22FE4900920F02240
:10AFE400D3E516940074809480401315161211084A
:10AFF400302808900932E0FF120D4C12A60AE5161B
:05B004007002D23C22A5
:10AF7200C3E51694057480948050130516121108C7
:10AF8200302808900932E0FF120D4C12A60AE5168D
:06AF920064057002D23CD0
:01AF98002296
:108DEB0030B41FC2FEC21590091F74AAF09009136C
:108DFB00E004F0E0D394057480948040617406F035
:108E0B00805CD22ED2FEC22CE4900913F0AF2CFE64
:108E1B00C3EF940374809480503120042E90091C6E
:108E2B00E004F0E0941E748094804012E4F090090A
:108E3B001FE06004E4F0800690091F74FFF0C3EF9D
:108E4B009402EE648094805002D215D3E52C9403E7
:108E5B0074809480400890091F74AAF0C215900981
:108E6B000EE004F0E0D3940F748094804062E4F041
:108E7B0030FF2020040BFF12947690091A7402F035
:108E8B002290091AE06049E4FF12947690091AE0E7
:108E9B0014F022900910E0640170072001327F0268
:108EAB00802B900910E0640270072002237F03805F
:108EBB001C900910E0640370072003147F04800DDD
:108ECB00900910E0640470082000057F011294766D
:018EDB002274
:10AE5000E4FEEFFD7C00648170030E801BED6482D4
:10AE60004C70047E028011ED64834C7003FE8008F8
:0AAE7000ED64804C70027E03AF0613
:01AE7A0022B5
:10414B009008B7E07002A3E0600E9008B8E024FF7F
:10415B00F09008B7E034FFF0E4900884F0203C03C3
:10416B0002451290091BE004F0E0C3940F74809495
:10417B0080507B9008877411F0900887E0FD7C00DD
:10418B00C394157480948040030245BDE4FF12A5CF
:10419B0080900887E0FD75F002A424FEF582E5F01F
:1041AB003402F583E4F0A3EFF07C007F0112A580CD
:1041BB00900887E0FD75F002A424FAF582E5F0344F
:1041CB0003F583E4F0A3EFF07C007F0212A580904F
:1041DB000887E075F002A424F6F582E5F03404F5C7
:1041EB0083E4F0A3EFF0900887E004F0808B900954
:1041FB001BE0C3941E74809480400302429D900880
:10420B00877411F0900887E0FD7C00C394157480CF
:10421B00948040030245BDE4FF12A580EF24FCFF10
:10422B00E43403FE900887E0FD75F002A424FEF54C
:10423B0082E5F03402F583EEF0A3EFF07C007F0112
:10424B0012A580EF24FCFFE43403FE900887E0FD09
:10425B0075F002A424FAF582E5F03403F583EEF051
:10426B00A3EFF07C007F0212A580EF24FCFFE43467
:10427B0003FE900887E075F002A424F6F582E5F0C2
:10428B003404F583EEF0A3EFF0900887E004F0021E
:10429B00420F90091BE0C3942D74809480507B9047
:1042AB0008877411F0900887E0FD7C00C3941574A7
:1042BB0080948040030245BDE4FF12A580900887DF
:1042CB00E0FD75F002A424FEF582E5F03402F583DF
:1042DB00E4F0A3EFF07C007F0112A580900887E04B
:1042EB00FD75F002A424FAF582E5F03403F583E4BE
:1042FB00F0A3EFF07C007F0212A580900887E07599
:10430B00F002A424F6F582E5F03404F583E4F0A37F
:10431B00EFF0900887E004F0808B90091BE0C394CA
:10432B003C7480948040030243C99008877411F059
:10433B00900887E0FD7C00C3941574809480400343
:10434B000245BD7F0112A580EF24FCFFE43403FE80
:10435B00900887E0FD75F002A424FAF582E5F034AD
:10436B0003F583EEF0A3EFF07C00E4FF12A580EFE2
:10437B0024FCFFE43403FE900887E0FD75F002A4F3
:10438B0024FEF582E5F03402F583EEF0A3EFF07C2A
:10439B00007F0212A580EF24FCFFE43403FE90089B
:1043AB0087E075F002A424F6F582E5F03404F5837A
:1043BB00EEF0A3EFF0900887E004F002433B900986
:1043CB001BE0C3944B74809480507B9008877411CE
:1043DB00F0900887E0FD7C00C394157480948040B6
:1043EB00030245BDE4FF12A580900887E0FD75F040
:1043FB0002A424FEF582E5F03402F583E4F0A3EF8A
:10440B00F07C007F0112A580900887E0FD75F0021B
:10441B00A424FAF582E5F03403F583E4F0A3EFF07E
:10442B007C007F0212A580900887E075F002A4241F
:10443B00F6F582E5F03404F583E4F0A3EFF0900891
:10444B0087E004F0808B90091BE0C3945A7480942E
:10445B008040030244F59008877411F0900887E0C0
:10446B00FD7C00C394157480948040030245BD7F8E
:10447B000212A580EF24FCFFE43403FE900887E0D2
:10448B00FD75F002A424F6F582E5F03404F583EE15
:10449B00F0A3EFF07C007F0112A580EF24FCFFE47A
:1044AB003403FE900887E0FD75F002A424FAF58230
:1044BB00E5F03403F583EEF0A3EFF07C00E4FF129C
:1044CB00A580EF24FCFFE43403FE900887E075F031
:1044DB0002A424FEF582E5F03402F583EEF0A3EF9F
:1044EB00F0900887E004F002446790091BE0D39436
:1044FB005A7480948050030245BDE4F03059030296
:10450B0045BDC23C0245BDA22C722140030245BDF4
:10451B0090091BE004F0E0941E7480948050030219
:10452B0045BDE4F090091DE0FF7E0070028054EF62
:10453B0064014E7002803EEF64024E70028044EFC5
:10454B0064034E7002802EEF64044E70028034EFD1
:10455B0064054E7002801EEF64064E70028024EFDD
:10456B0064074E7002800EEF64084E70028014EFE9
:10457B0064094E700890090F74FAF0800AEF640A10
:10458B004E700490090FF09008877406F0302C03DE
:10459B00740AF090091DE004F0900887E0FF900981
